:020000040800F2
:100000008009002085010008355200089D4800083D
:1000100000000000000000000000000000000000E0
:100020000000000000000000000000005D55000816
:10003000000000000000000045520008B155000813
:10004000B501000839520008B5010008B5010008E3
:10005000B5010008B50100083D100008B501000811
:10006000B5010008B5010008B5010008B501000898
:10007000B5010008B5010008B50100084D5600089B
:10008000595600080000000000000000B5010008FB
:1000900000000000B5010008B5010008B501000826
:1000A00000000000B5010008B5010008B501000816
:1000B000B5010008000000002D100008B50100087F
:1000C00000F002F800F04EF812A030C808382418EA
:1000D0002D18AC4201D100F045F80FCCA246AB463A
:1000E0000CA730CF2D1B083F3F197C427F1E544484
:1000F0002D090426F441641EAC4201D300F032F80D
:100100000126334200D0FB1A3343984754465D46DC
:10011000DFE700003864000058640000103A02D3A2
:1001200078C878C1FAD8520701D330C830C101D598
:1001300004680C6070470000704700000023002432
:1001400000250026103A01D378C1FBD8520700D30E
:1001500030C100D50B6070471FB500F0C7F91FBD57
:1001600010B510BD00F091FE1146FFF7F5FF05F048
:100170003DFF00F0A9FE03B4FFF7F2FF03BC00F05F
:10018000D5FE00000F4880F308880F480168090E6B
:100190000E4A914205D10E480E4901600E480F49A2
:1001A00001600F4880470F480047FEE7FEE7FEE783
:1001B000FEE7FEE7FEE700000B480C490C4A0D4B3A
:1001C0007047000080090020040000001F000000AC
:1001D0001810024001000000000001400000000073
:1001E00049560008C1000008800300208009002053
:1001F00080050020800500204343514330B55C1842
:10020000010C130C0D4692B25D4380B251432C1980
:10021000054655430A0C09044D1962415843010C27
:1002200000044019514130BDFEB5044610460D464C
:10023000184373D0A6468C460020A41A01469D415F
:1002400067D36646002701243D46B61A9D4102D376
:1002500013463A462124654676462F04360C3E4323
:100260002D0CB61A9D4104D3150C1B042B4312040C
:100270001034654676462F06360A3E432D0AB61AD6
:100280009D4104D3150E1B022B4312020834654610
:1002900076462F0736093E432D09B61A9D4104D3F1
:1002A000150F1B012B431201241D65467646AF072F
:1002B000B6083E43AD08B61A9D4104D3950F9B0086
:1002C0002B439200A41C65467646EF0776083E4312
:1002D0006D08B61A9D411AD392185B41641C16E052
:1002E0000018764665464941B71A9D410191009034
:1002F00009D36046B11A98418E4684460098019908
:100300000025401C6941DD0752082A435B08641E32
:10031000E6D57246634603B0F0BDFFE720462843AA
:1003200007D00020C0430146C046C04622462B46A7
:10033000F1E700200146F7E701E004C0091F0429A6
:10034000FBD28B0701D50280801CC90700D0027048
:10035000704700290BD0C30702D00270401C491E11
:10036000022904D3830702D50280801C891EE3E79B
:100370000022EEE70022DFE7002203098B422CD3A4
:10038000030A8B4211D300239C464EE003460B43E5
:100390003CD4002243088B4231D303098B421CD347
:1003A000030A8B4201D394463FE0C3098B4201D339
:1003B000CB01C01A524183098B4201D38B01C01A71
:1003C000524143098B4201D34B01C01A52410309E8
:1003D0008B4201D30B01C01A5241C3088B4201D397
:1003E000CB00C01A524183088B4201D38B00C01A44
:1003F000524143088B4201D34B00C01A5241411A6B
:1004000000D201465241104670475DE0CA0F00D04D
:100410004942031000D3404253409C460022030946
:100420008B422DD3030A8B4212D38901FC2212BACC
:10043000030A8B420CD3890192118B4208D38901A4
:1004400092118B4204D389013AD0921100E08909BC
:10045000C3098B4201D3CB01C01A524183098B429D
:1004600001D38B01C01A524143098B4201D34B0186
:10047000C01A524103098B4201D30B01C01A5241E9
:10048000C3088B4201D3CB00C01A524183088B4270
:1004900001D38B00C01A5241D9D243088B4201D3F9
:1004A0004B00C01A5241411A00D201465241104637
:1004B00063465B1001D34042002B00D54942704790
:1004C00063465B1000D3404201B50549002802DCB9
:1004D000491C084000E00846C046C04602BD00BFB7
:1004E000FFFFFF7F704770477047000008487CB5EA
:1004F0007844009007487844009C0546019004E049
:100500002046016808188047241DAC42F8D17CBD04
:1005100078600000766000000246C80FC007814383
:100520004B0030B54B405B009B0D20D01923DB0600
:10053000C91801231B05994220DB0324A4070425C5
:100540001346AB400BD3002B04D1EB0613409B00AA
:10055000E34204D401246407002312195941FF2304
:100560001B0599420BD2C9000143500F09E0CB0291
:1005700004D501430803024305D0054830BDFF21DF
:10058000C905084330BD084607210905884330BD29
:100590000000C07FF0B5F94D0C091E092C402E401B
:1005A0002F468BB0A7437DD0B543FCD0002E7AD028
:1005B000002CFCD00D465D40ED0F2543AC1BFF2504
:1005C000AD0464190894C502440DC9022143500DBD
:1005D000DC0204430120C00701430443D20201911D
:1005E000200C110C00958C46010423468B430A9184
:1005F00061460904E24D8A430991010A7D44491983
:100600008039097805464D4301266D18F605751B9E
:100610006943C90C640B891C4C436418B5012C1B3D
:10062000250C2E04B4434C434D43210C6918890911
:100630000591009DE90701D00121C90704912C46CD
:1006400001996708CD072F434C08059DE10B4D43E9
:100650002D0C29466646754302950D4645432E46A8
:10066000029D7D1BB44100950D465D4301942C0C09
:100670002F040D465543AE462D0C3D430295039481
:100680007546049C2D04641B049406D2029C039DB1
:10069000641C002675410395029401AC70CC009F48
:1006A0007D1B01E03EE162E1B44109040095079140
:1006B00001940599A4086143090C0C464443650B59
:1006C000E7040C4666467443A646640B3C43039518
:1006D00002947446049DE4042C1B049406D2029CEC
:1006E000039D641C002675410395029401AC70CCF7
:1006F000009F7D1BB44101940C465C430095650F3F
:10070000E7000C465443A646640F3C43039502940D
:100710007446049DE4002C1B049406D2029C039DA5
:10072000641C002675410395029401AC70CC009FB7
:100730007D1BB441AE09AF06049DC900AD092F432E
:10074000049DA406AD060495079D344369180791DE
:10075000059DE10B4D432D0C2946664675430295D8
:100760000D4645432E46029D7D1BB44100950D4626
:100770005D4301942C0C2F040D465543AE462D0CC1
:100780003D43029503947546049C2D04641B049418
:1007900006D2029C039D641C0026754103950294B9
:1007A00001AC70CC009F7D1BB44101948C05069474
:1007B000079C890A611800950791019C0599A40876
:1007C0006143090C0D464543680BEF040D46644632
:1007D00065436C0B3C43049FED047D1BAC4602D289
:1007E0000025641C6841009E019D371B8541084619
:1007F000584301950C46460FC5005443600F2843EB
:100800006546E4002C1B02D20025401C6E41019D70
:100810003F1AB5412846BD09800628438446A009F1
:10082000BF064E020699A40676180743079D0020CE
:1008300068410A99079019430020099B009060467F
:10084000FF1913434041E20F64003A43A4460446B3
:10085000D71A8C41A04203D90120009020463A4685
:10086000C70F941840416246D20F22436446640089
:100870000494009CBE466400D71AA446044602971E
:100880008C417746002F01D1A04204D96046401C1C
:100890008446029A2046C40FA64694184041049A02
:1008A0000546D20F224364466400D31A8D41714637
:1008B000002901D1A84202D928461A46641C1043D7
:1008C0000122002800D0164361020020079B8919ED
:1008D00004465C410223002C02DB491813466441A4
:1008E000089DCE0A2D145D194B056705E10A2C05FC
:1008F0000D1908993E43C9076940002B08D0934061
:1009000006D30022761C5141002B01D176087600D7
:100910001C4A002D43DB154241D0AA433FD030464C
:100920000BB0F0BD06180D464D41174C7642AC4158
:100930001AD395181C465C41134A6D42A24113D349
:10094000012252054C00D4420AD15C00D4420BD0A3
:100950004B4002D592021143E2E749004908DFE724
:100960005940C90FC90718E000200849D8E70548D1
:1009700001420DD10342F7D0F2E700000000FF076B
:100980009C5E00000000F07F0000E0FF0000F87FA8
:10099000114859400143C01241400020C0E70123E3
:1009A000089A9B069A4205DC032252078918C90F50
:1009B000C907B5E7052252078918074A1143D21221
:1009C0005140ADE770B515461C4602460B46284619
:1009D0002146FFF7DFFD70BDFFFFFF7F1F22030CE5
:1009E00002D10F22000402D0030E03D004E0002045
:1009F000014670470002083A030F01D10001121F9F
:100A0000830F01D18000921E002801DB4000521E9E
:100A1000120551184205C012411810467047C10F07
:100A2000C90700D04042012292071143D6E70121B5
:100A30008907D3E7F0B58B4C0F09254689B0BD4334
:100A40007BD01D092646AE43FAD00E465E402740B5
:100A5000F60F3E43254071D024012142FBD0FF24F4
:100A6000AD19A4042D1B039501252D05DB02DB0A1E
:100A7000C9022B43C90A29431E010901040F130FA0
:100A8000050121431701880B820391432D098C46F0
:100A9000A90B1E438A039543B30B9A0396433F0960
:100AA000BA0B9403A74302962E467E430497B6469C
:100AB0004E19D7190C460196544305977E43371BB0
:100AC0007646BF1B3601B646BE0B361900967646F3
:100AD000BC043719009C01D3641C00946400002FEF
:100AE00001D001263443029E049F754366467E432F
:100AF0000496760034196E0034190094029C019E0D
:100B00001C196643751BAE46069465464519059C3F
:100B100005956C43594375460891691A0191049EE5
:100B200001465143A41B0491611A009C0791E10600
:100B300005D061090122114302E072E06EE0610913
:100B4000089D00272C0A2D066918049D7C412A0A5D
:100B50002D066918019D6241AC0DAD026D1854411E
:100B6000079A910D920255196141029A64465843C1
:100B70005443069B059A5A43121A131B9A0E9B0163
:100B80005B187A41010B0005C3185141220A200667
:100B900044195A419A4200D2491C01204002814224
:100BA00003D315230226F64302E014230326F6435B
:100BB0002020C51AA9401746AF40DA400A43204614
:100BC0000399D8400914731819055118039A38432A
:100BD000D2075140AC4009D00122944006D30022F4
:100BE000401C5141002C01D1400840001E4A934254
:100BF00012D3012203989206904207DB052040079A
:100C000009181A480143C012414004E0032040077C
:100C10000818C10FC907002009B0F0BD0020F10776
:100C2000FAE705180C464C4111486D42A04115D316
:100C300094181A465A410E48644290410ED301203E
:100C40004A004005824209D35A00824206D35940E5
:100C5000C90F084AC90700201143DDE700200649F3
:100C6000DAE700000000FF07FE070000FFFFFF7F3C
:100C70000000E0FF0000F07F0000F87F0121C905BF
:100C80000123411842001B06D3185B0E0AD0C11085
:100C90000722D206891840075242D14201D552009C
:100CA00089187047090208D50146002A03D0C10FF0
:100CB000C9070020704710467047420202D000204A
:100CC00002497047072109050143F4E70000F87F56
:100CD00010B501469E240002CA15A307002A02D0BF
:100CE0001843002A04DBA21A002A0CDDD04010BDF4
:100CF0001206120E01D140004008A21A03D4D040BF
:100D000040420028F3DDFF2248001206904201D93C
:100D1000002010BDC817C043584010BD1F22030C4F
:100D200002D10F2200041CD0030E01D10002083AA8
:100D3000030F01D10001121F830F01D18000921E09
:100D4000002801DB4000521ED20551180212511832
:100D50001922904004D3491C002801D149084900B8
:100D600008467047C10FC90700D0404201229207D0
:100D70001143D3E701218907D0E7000000487047FD
:100D800018000020F8B5264C4E00069DA6420AD851
:100D9000A64201D1002806D15E00A64203D8A64291
:100DA0000AD1002A08D00D242404254233D0294634
:100DB000002000F091F8F8BD0C461C4311D4994274
:100DC00007D0C81A02D3EFF30080F8BDEFF300801C
:100DD000F8BD801A02D3EFF30080F8BDEFF3008076
:100DE000F8BD09242407E5008B4207D0581A02D326
:100DF000EFF3008006E0EFF3008007E0101A03D362
:100E0000EFF30080A04303E0EFF30080A04328430A
:100E100080F30088F8BD009500F076F8F8BD00007A
:100E20000000E0FF10B5FF231B0644009C421DD8C4
:100E30004C009C421AD80346124A0B4307D4401A6E
:100E400002D3EFF3008010BDEFF3008010BD081A4D
:100E500003D3EFF30080904305E0EFF3008001211E
:100E60009043C907084380F3008810BD0D231B047D
:100E70001A4204D01146002000F02EF810BD00F0F8
:100E80004DF810BD0000009070477546FFF776FFE3
:100E9000AE46050069465346C008C000854618B0F6
:100EA00020B5FFF789F960BCB64600260027C0C50B
:100EB000C0C5C0C5C0C5C0C5C0C5C0C5C0C5403D12
:100EC000490849008D46704710B50446C046C046E3
:100ED0002046FFF750F910BDC80212D54803400F55
:100EE000002804D0C803C043012188407047EFF3B5
:100EF00000800001000903210907084380F30088EE
:100F0000704700207047000010B500200249029A87
:100F100000F012F810BD00000000F87F10B5024884
:100F200000F00AF810BD00000000C07F0149182041
:100F3000ABBEFEE72600020010B50C461107090FF4
:100F4000092904D00A290AD008290CD104E0114645
:100F50000820FFF7C1FF06E0510606D501E0510663
:100F600001D50120C007214610BDD10607D50101DA
:100F70000909CC084907000E0006044309E0410FA7
:100F800020024907000A0143200E00061D22D1411C
:100F900001430846E7E7000080B584B00390029162
:100FA000039800681149884213D1FFE7039810495C
:100FB00008600298886203980023019319461A4634
:100FC00004F047FE019B03980C211A4604F041FEF1
:100FD000FFE7039800F080FE0398022100F03AF842
:100FE0000398102100F036F804B080BD0064004082
:100FF0008000002010B58CB00091014600980B9144
:101000000AA90880099208A8038009880291002192
:10101000039104910591008806900B98099A02A902
:1010200001AB00F03FF80CB010BD000080B50248E5
:1010300000F0CFFA80BDC0462001002080B504201A
:1010400000F09CFF80BD81B0EFF3108072B600907D
:10105000FFE7FEE784B00290019102982021415CF5
:10106000684601700078012805D0FFE768460078DF
:1010700002280AD1FFE7019A0298016848691043E3
:10108000486103A90020087008E0029A516A012013
:1010900083041943516203A90870FFE703A800788D
:1010A00004B0704788B006900591049203930698A7
:1010B0002021405C01A908700698006880680090B3
:1010C00005988068002801D1FFE700E0FFE701A84C
:1010D0000078012805D0FFE701A80078022800D099
:1010E00099E06846C078400700280CD4FFE76846BE
:1010F000C0780007002806D4FFE76846C078C0061D
:1011000000287FD5FFE70098032109060840000E5C
:101110000290029901208840039908600598806830
:1011200000280ED1FFE7059908684005C968084303
:1011300006990968029A120189180322D20188507F
:101140000FE005994868C0008A681043C9680843E1
:1011500006990968029A120189180322D20188505F
:10116000FFE70598006906990968029A1201891833
:101170006122920088500598007D01280DD1FFE77B
:101180000698006802990901411861208200885878
:1011900001231B0218438850FFE70499C879000611
:1011A0008A79120480184A79120280180979401845
:1011B00006990968029A12018918632292008850E0
:1011C0000499C87800068A78120480184A781202B6
:1011D00080180978401806990968029A120189183E
:1011E0003122D200885006980068029909014118FE
:1011F0000320C201885801231843885007A9002002
:10120000087011E0069A516A0120430519435162A2
:1012100007A9087008E0069A516A0120830419435F
:10122000516207A90870FFE707A8007808B0704767
:1012300086B00490039104980068019004982021DE
:10124000415C684601700078012805D0FFE76846D8
:101250000078022800D09DE0019A01204302D15875
:101260000143D150039949691F22114088400290DF
:10127000029B0199872082008858984388500398E0
:10128000C069002820D1FFE7029B019983208200DA
:10129000885898438850039AD06800049188401871
:1012A00001995269D2008918092292018850039A43
:1012B000906800041188401801995269D200891879
:1012C000912292008850FFE70398C069012820D13D
:1012D000FFE7029B019983208200885818438850B9
:1012E000039A106800049188401801995269D2004D
:1012F0008918092292018850039A90680004918904
:10130000401801995269D2008918912292008850A0
:10131000FFE703988069002808D1FFE7029B019945
:101320008120820088589843885007E0029B0199E9
:1013300081208200885818438850FFE7039800698D
:10134000002808D1FFE7029B019985208200885878
:101350009843885007E0029B0199852082008858B5
:1013600018438850FFE70398006A012808D1FFE777
:10137000029B019987208200885818438850FFE714
:10138000019901235A0288589843885005A90020E2
:10139000087008E0049A516A0120830419435162DD
:1013A00005A90870FFE705A8007806B0704781B06E
:1013B000009001B0704786B00490039102920193AF
:1013C00004982021415C684601700078012805D00E
:1013D000FFE768460078022800D0EDE00398002877
:1013E00011D1FFE704980068C0688007002809D180
:1013F000FFE7049A516A012043051943516205A988
:101400000870E2E010E00498006800698007002896
:1014100009D1FFE7049A516A01204305194351623B
:1014200005A90870D1E0FFE7049800680399090155
:1014300040181B2109014058042108400299886086
:101440000298806800280CD1FFE70498006803998F
:10145000090140181B2109014058400D02990860FC
:101460000BE0049800680399090140181B21090149
:101470004058C00802994860FFE704980068039943
:10148000090140181B210901405802210840029916
:10149000C860049800680399090140186D2189000B
:1014A00040580F210840082804D3FFE7029908207C
:1014B00008610CE0049800680399090140186D2147
:1014C000890040580F21084002990861FFE70498FD
:1014D00000680399090140186D218900405880B2C5
:1014E000000A029A906104980068039A1201801819
:1014F0004058000C0299486104980068039909015A
:1015000040183721C9004058019A107004980068AB
:10151000039A120180184058000A019A50700498EA
:101520000068039A120180184058000C019A9070CC
:1015300004980068039A120180184058000E01991F
:10154000C870049800680399090140186F21890048
:101550004058019A107104980068039A120180188B
:101560004058000A019A507104980068039A1201C9
:1015700080184058000C019A907104980068039AF2
:10158000120180184058000E0199C8710398002874
:1015900007D1FFE704980168C86820221043C8609B
:1015A00006E0049801680869202210430861FFE7FB
:1015B00005A90020087008E0049A516A01208304FC
:1015C0001943516205A90870FFE705A8007806B025
:1015D000704780B58AB0099000200890099800688B
:1015E000406907900998006840680690099800686B
:1015F0008068059009980068C068049009980068A0
:1016000000690390099800688069029007A8007833
:10161000C007002800D19BE005A80078C00700287B
:101620002DD0FFE7099801680120886005A800789F
:101630008007002804D5FFE7099800F097FB1DE01C
:1016400005A800784007002806D5FFE70898012183
:10165000C9020843089010E005A800780007002898
:1016600006D5FFE70898012109030843089003E025
:10167000099800F077FBFFE7FFE7FFE7FFE705A822
:101680004078C00700282ED0FFE7099801680120A4
:101690000002886005A840788007002804D5FFE78D
:1016A000099800F06BFB1DE005A840784007002872
:1016B00006D5FFE70898012149030843089010E088
:1016C00005A840780007002806D5FFE70898012103
:1016D00089030843089003E0099800F04BFBFFE7FB
:1016E000FFE7FFE7FFE705A88078C00700282ED0B6
:1016F000FFE70998016801200004886005A8807848
:101700008007002804D5FFE7099800F03FFB1DE0A3
:1017100005A880784007002806D5FFE70898012132
:10172000C9030843089010E005A880780007002846
:1017300006D5FFE70898012109040843089003E053
:10174000099800F01FFBFFE7FFE7FFE7FFE7FFE770
:1017500007A800780007002811D5FFE704A8007843
:10176000C00600280AD5FFE708980121490208436E
:101770000890099801681020C860FFE7FFE707A8F4
:101780000078400700280FD5FFE704A8007800077D
:10179000002808D5FFE7099801680820C860099863
:1017A00000F056FAFFE7FFE707A800788007002857
:1017B0000CD5FFE709980068C0688007002804D0AE
:1017C000FFE7099800F048FAFFE7FFE707A800786D
:1017D0004006002811D5FFE703A80078C0060028BE
:1017E0000AD5FFE708980121890208430890099863
:1017F000016810200861FFE7FFE707A8007880066E
:1018000000280FD5FFE703A800780007002808D5B7
:10181000FFE70998016808200861099800F036FA86
:10182000FFE7FFE707A80078C00600280CD5FFE710
:101830000998006800698007002804D0FFE709982C
:1018400000F028FAFFE7FFE707A880788007002864
:101850000FD5FFE706A80078C006002808D5FFE7E7
:101860000998016810204860099800F031FAFFE7F4
:10187000FFE707A88078C00700280FD0FFE706A879
:1018800000780007002808D5FFE7099801680820BC
:101890004860099800F07EFAFFE7FFE707A8407864
:1018A0000006002800D48DE006A800784007002834
:1018B00000D482E007A84078C00700280BD0FFE7DB
:1018C00002A80078C007002805D0FFE7089801218A
:1018D00008430890FFE707A84078800700280BD549
:1018E000FFE702A800788007002805D5FFE70898E1
:1018F000022108430890FFE707A840784007002826
:101900000BD5FFE702A800784007002805D5FFE7C0
:101910000898042108430890FFE707A840780007CB
:10192000002849D5FFE702A800784006400F0028AC
:1019300042D0FFE70298702108400190102814D08F
:10194000FFE70198202815D0FFE70198302816D02E
:10195000FFE70198402817D0FFE70198502818D0DA
:10196000FFE70198602819D01EE008980821084375
:1019700008901AE0089810210843089015E008988C
:1019800020210843089010E008984021084308905F
:101990000BE0089880210843089006E00898012190
:1019A00009020843089000E0FFE709980168886988
:1019B000702290438861FFE7FFE7099801680420DF
:1019C0004860FFE70898002809D0FFE7089A0999BE
:1019D000486A104348620998FFF7E9FCFFE70AB03C
:1019E00080BD80B584B002900298002804D1FFE742
:1019F00003A901200870DEE002982021405C002845
:101A000004D1FFE7029800F0DBF8FFE702980168D5
:101A1000086801221043086000F05CFC0190FFE7B9
:101A2000029800684068C007002815D1FFE700F061
:101A300051FC0199401A0B280DD3FFE7029A516A15
:101A40000120430419435162029A20230521D154F5
:101A500003A90870AFE0E3E7029801680868022272
:101A60009043086000F036FC0190FFE702980068A0
:101A700040688007002815D5FFE700F02BFC01998E
:101A8000401A0B280DD3FFE7029A516A0120430444
:101A900019435162029A20230521D15403A90870E9
:101AA00089E0E3E70298007E012807D1FFE702986A
:101AB0000168086880221043086006E00298016807
:101AC0000868802290430860FFE70298407E012862
:101AD00007D1FFE7029801680868402210430860B8
:101AE00006E0029801680868402290430860FFE71A
:101AF0000298807E012807D1FFE7029801680868F4
:101B000020221043086006E002980168086820223D
:101B100090430860FFE70298C07E012807D1FFE7E5
:101B200002980168086810229043086006E0029855
:101B300001680868102210430860FFE70298007FE0
:101B4000012807D1FFE702980168086808221043BE
:101B5000086006E00298016808680822904308605F
:101B6000FFE70298407F012807D1FFE7029801684C
:101B7000086804221043086006E0029801680868BB
:101B8000042290430860FFE702998868CA681043FE
:101B90000A6910434A6910434A68521E1043096893
:101BA000C861029900204862029A20230121D15481
:101BB00003A90870FFE703A8007804B080BD000007
:101BC00080B58AB009900020089007900690059093
:101BD0000490099800683C49884232D1FFE7FFE74A
:101BE00019480268012149060A430260006808405A
:101BF00003900398FFE7FFE71448026801214904B6
:101C00000A4302600068084002900298FFE7032040
:101C1000C1020491022105910021009106910790D3
:101C2000042008900920C00604A900F0BDF9009A1C
:101C30001E200190012101F039F8019801F02BF8E4
:101C4000FFE70AB080BDC0461C10024014100240DD
:101C500081B0009001B0704780B584B003900398C4
:101C60000068194988420ED1FFE70398174B01938A
:101C70001A1D029220330021FFF79DFB0199029863
:101C8000896A8847FFE704B080BDC04681B00090F4
:101C900001B0704780B584B00390039800680A498A
:101CA00088420ED1FFE70398084B01931A1D029258
:101CB00020330121FFF77FFB01990298896A884749
:101CC000FFE704B080BDC0460064004080000020F3
:101CD00081B0009001B0704780B584B00290029846
:101CE0002021405C012830D1FFE702992022022008
:101CF000885402980168086801229043086000F047
:101D0000E9FA0190FFE7029800684068C0070028E0
:101D100015D0FFE700F0DEFA0199401A0B280DD329
:101D2000FFE7029A516A0120430419435162029A63
:101D300020230521D15403A908700FE0E3E702999D
:101D40000020486203A9087008E0029A516A012045
:101D5000C3041943516203A90870FFE703A8007880
:101D600004B080BD81B0009001B0704781B0009098
:101D700001B0704781B0009001B0704781B0009011
:101D800001B0704781B0009001B0704781B0009001
:101D900001B0704781B0009001B0704780B588B045
:101DA00007A9088068480821059102F05FFC0599A1
:101DB0000920C006012200F076FA0F2000F060FF33
:101DC000102000F05DFF1E2000F05AFFFFE7092001
:101DD000C006042100F04EFA002822D1FFE75B493B
:101DE00004910868401C0860594800F0B9FE049846
:101DF0000168CA17920D89188912534A1268D16373
:101E00000068544988420BDBFFE753490120086012
:101E10004D4801685148C8634C490020086000E003
:101E2000D5E74A480021016047480268D16301684C
:101E30004B48886248480068012879D1FFE7494942
:101E40000020086048480068416A4848016000680E
:101E500047490860FFE746480068444909687D2211
:101E60005201891888424FD8FFE7394800F078FEC0
:101E70000920C006042100F0FDF900283DD1FFE74C
:101E800038490868401C08600920C0060821002263
:101E900000F009FAFFE70920C006042100F0EAF982
:101EA00000280AD1FFE72A4800F05AFE0920C006A0
:101EB0000421012200F0F7F9EDE72B480068406AA1
:101EC000069006982A490860FFE7294800680699A5
:101ED000491C88420AD8FFE71D4800F041FEFFE791
:101EE00021480068406A22490860EEE70920C006E0
:101EF0000821012200F0D7F9FFE7FFE71A48006840
:101F0000406A1B490860A6E716480168CF311948A6
:101F10000180642102910121019100901648A021C5
:101F20000422022300F050FC0B4900200860FFE768
:101F30000F2000F0B0FE102000F0ADFE1E2000F0DB
:101F4000AAFE08B080BDC046E80200205C03002065
:101F50009C010020FFFF1F0060030020FF0F000016
:101F60005C1200006403002058020020740300206B
:101F700058030020000000204801002080B582B0F6
:101F800001A90880074800680988084208D0FFE7CF
:101F900001A80188034A11600088FFF7FFFEFFE7F0
:101FA00002B080BD140401408AB00990089100205D
:101FB0000790FFE7089800680799C840002800D1FB
:101FC00047E108980068079A01219140084006906F
:101FD0000698002800D138E108984068032108409D
:101FE000012807D0FFE7089840680321084002282D
:101FF0002CD1FFE7099880680590079840000321DD
:1020000081400598884305900898C168079840006A
:1020100081400598084305900598099988600998BA
:1020200040680590079801218140059888430590F4
:1020300008984068102108400109079881400598D8
:1020400008430590059809994860FFE7089840689B
:1020500003210840032816D0FFE70998C0680590BF
:10206000079840000321814005988843059008980F
:1020700081680798400081400598084305900598BD
:102080000999C860FFE708984068032108400228C2
:1020900020D1FFE709980799C90889004018006A0C
:1020A000059007984007C00E0F218140059888438E
:1020B00005900898016907984007C00E814005986F
:1020C0000843059005980999079AD2089200891843
:1020D0000862FFE70998006805900798410003200F
:1020E00002468A4005999143059108994968014043
:1020F0000798400081400598084305900598099984
:102100000860089880798007002800D19CE0FFE7EC
:10211000CB48026801210A4302600068084004902D
:102120000498FFE70798032188434B4940580590DE
:1021300007988007000F0F2181400598884305907C
:1021400009980921C906884203D1FFE700200390BE
:1021500017E009984149884203D1FFE70120029026
:102160000CE009993E4A0220052300939142019018
:1021700001D00098019001980290FFE70298039027
:10218000FFE7039907988007000F814005980843EF
:10219000059005980799032291432F4A88503148AA
:1021A00000680590069905988843059008988079FD
:1021B000C006002805D5FFE7069905980843059055
:1021C000FFE70598274908602748006805900699A9
:1021D000059888430590089880798006002805D5E1
:1021E000FFE70699059808430590FFE705981E4903
:1021F00008601E4800680590069905988843059078
:10220000089880798007002805D5FFE7069905988A
:1022100008430590FFE705981449086014480068D2
:102220000590069905988843059008988079C0071D
:10223000002805D0FFE70699059808430590FFE7B9
:1022400005980B490860FFE7FFE70798401C0790D7
:10225000B0E60AB07047C0460800014000040048DC
:1022600000080048080401400C0401400404014037
:102270000004014084B0009101460098039102A936
:102280000880039800690988084204D0FFE701A983
:102290000120087003E001A900200870FFE701A8F1
:1022A000007804B0704783B0029001A801806846AE
:1022B00002700078002805D0FFE701A80088029985
:1022C000886104E001A8008802998862FFE703B0F2
:1022D00070470000014800687047C046780300203E
:1022E00010B583B00190009101984121405C2028F5
:1022F00039D1FFE7FFE701984021405C012804D174
:10230000FFE702A90220087031E001994022012074
:102310008854FFE7FFE7019941222420885401985F
:1023200001680868012398430860019801680868FB
:102330001C03A0430860009C0198016808682043C2
:102340000860019801680868184308600199202016
:102350008854FFE70199402200208854FFE702A932
:102360000020087003E002A902200870FFE702A81D
:10237000007803B010BD84B0029001910298412111
:10238000405C20283FD1FFE7FFE702984021405CF6
:10239000012804D1FFE703A90220087037E0029961
:1023A000402201208854FFE7FFE7029941222420C0
:1023B00088540298016808680123984308600298CD
:1023C00000680068009000980F210902884300907F
:1023D000019801020098084300900098029909684A
:1023E0000860029801680868184308600299202074
:1023F0008854FFE70299402200208854FFE703A990
:102400000020087003E003A902200870FFE703A87A
:10241000007804B07047000082B00190FFE70848E0
:10242000026801210A430260006808400090009899
:10243000FFE7019A034908681043086002B070473B
:10244000181002400000014080B582B00090009852
:10245000002804D1FFE701A9012008707EE0009860
:102460004121405C002808D1FFE70099402200206C
:102470008854009800F0D6FAFFE700994122242002
:102480008854009801680868012290430860009908
:1024900048680F231B069843096808610098016883
:1024A0008868D203904388600098C068012808D1EA
:1024B000FFE7009988680122D20310430968886009
:1024C00007E0009988682122920210430968886019
:1024D000FFE70098C068022808D1FFE7009801686C
:1024E00048680122D2021043486007E00098016862
:1024F00048680122D20290434860FFE700980168D3
:102500004868184A1043486000980168C86801226A
:10251000D3039843C860009908694B6918438B69D5
:102520001B0218430968C8600099C8690B6A184300
:1025300009680860009801680868104308600099FD
:1025400000204864009A41232021D1540099086357
:1025500000994222885401A90870FFE701A8007879
:1025600002B080BD00800002B0B58AB00446109869
:102570000F980E9D089407AC218006A90A8005A932
:102580000B8004A9088008984121405C202800D0D5
:1025900010E10E98002805D0FFE704A80088002865
:1025A00007D1FFE7089A01204102516409A9087088
:1025B00004E1FFE708984021405C012804D1FFE7CF
:1025C00009A902200870F9E00899402201208854E6
:1025D000FFE7FFE7FFF77EFE03900898039900915D
:1025E0000122D103192302F05BFB002804D0FFE78E
:1025F00009A901200870E1E00899412222208854AD
:1026000008994222402088540899002048640E9975
:10261000089A51620499089A518508994863089864
:1026200007A9098806AA128805AB1B88109C039D80
:102630000195009402F050FA00280AD0FFE7FFE766
:102640000899402200208854FFE709A9012008705A
:10265000B4E00898408D000A00280ED0FFE70898E3
:1026600001230385089807A909882822825C554C14
:1026700000941B0602F0EAFA0FE00898408D0899D2
:102680000885089807A909882822825C4D4B009389
:1026900001235B0602F0DAFAFFE7FFE70898109BD8
:1026A000039900910421002202F0FAFA002804D0D4
:1026B000FFE709A90120087080E008980068406AD7
:1026C0000899496A08700899486A401C4862089944
:1026D000088D401E08850899488D401E4885089839
:1026E000408D002839D0FFE70898008D002834D1AC
:1026F000FFE70898109B039900918021002202F0C7
:10270000CFFA002804D0FFE709A90120087055E09E
:102710000898408D000A00280ED0FFE70898012392
:102720000385089807A909882822825C0024009460
:102730001B0602F08BFA0FE00898408D0899088577
:10274000089807A909882822825C002300930123A6
:102750005B0602F07BFAFFE7FFE7FFE70898408D92
:1027600000289BD1FFE708981099039A02F0F9FA24
:10277000002804D0FFE709A9012008701EE008988E
:1027800001682020C86108990A685168A44B194063
:1027900051600899412288540899422200208854A7
:1027A000FFE70899402200208854FFE709A900208C
:1027B000087003E009A902200870FFE709A8007863
:1027C0000AB0B0BD00240080B0B58AB004461098AD
:1027D0000F980E9D089407AC218006A90A8005A9D0
:1027E0000B8004A9088008984121405C202800D073
:1027F0000EE10E98002805D0FFE704A80088002805
:1028000007D1FFE7089A01204102516409A9087025
:1028100002E1FFE708984021405C012804D1FFE76E
:1028200009A902200870F7E0089940220120885485
:10283000FFE7FFE7FFF74EFD03900898039900912B
:102840000122D103192302F02BFA002804D0FFE75C
:1028500009A901200870DFE008994122212088544D
:1028600008994222402088540899002048640E9913
:10287000089A51620499089A518508994863089802
:1028800007A9098806AA128805AB1B88109C039D1E
:102890000195009402F07CF900280AD0FFE7FFE7D9
:1028A0000899402200208854FFE709A901200870F8
:1028B000B2E00898408D000A00280FD0FFE7089981
:1028C000FF200885089807A909882822825C002330
:1028D000009301231B0602F0B9F90FE00898408D20
:1028E00008990885089807A909882822825C00238E
:1028F000009301235B0602F0A9F9FFE7FFE70898C0
:102900001099039A02F07DFA002804D0FFE709A984
:102910000120087080E00899486A00780968886298
:102920000899486A401C48620899488D401E4885AD
:102930000899088D401E08850898408D00283AD0D7
:10294000FFE70898008D002835D1FFE70898109B15
:10295000039900918021002202F0A2F9002804D0FE
:10296000FFE709A90120087056E00898408D000A89
:1029700000280FD0FFE70899FF200885089807A9CD
:1029800009882822825C0023009301231B0602F0A1
:102990005DF90FE00898408D08990885089807A907
:1029A00009882822825C0023009301235B0602F041
:1029B0004DF9FFE7FFE7FFE70898408D00289ED11B
:1029C000FFE708981099039A02F0CBF9002804D089
:1029D000FFE709A9012008701EE00898016820207F
:1029E000C86108990A6851680D4B194051600899EF
:1029F000412288540899422200208854FFE7089910
:102A0000402200208854FFE709A90020087003E055
:102A100009A902200870FFE709A800780AB0B0BD34
:102A200000E800FE80B58AB0099000200890079069
:102A3000069005900490099800681A4988422FD1A1
:102A4000FFE7FFE718480268012189040A43026092
:102A50000068084003900398FFE7C020049012200C
:102A600005900120019006900321079108900F48DE
:102A700004A9FFF799FA01980004FFF7CDFC01982B
:102A80004004FFF7C9FCFFE77B48026801214905C4
:102A90000A4302600068084002900298FFE7FFE7DF
:102AA0000AB080BD005400401410024000040048E9
:102AB00080B584B002900298002804D1FFE703A9F2
:102AC0000120087044E002980168234808600298D9
:102AD00001682248086002994868096848600299BC
:102AE000886809688860FFF7F5FB0190FFE70298A6
:102AF0000068C0684007002814D0FFE7FFF7EAFB32
:102B00000199401A28280CD3FFE702980068C06892
:102B10004007002804D0FFE703A90320087017E04E
:102B2000FFE7E4E70298006800690299C9688842F3
:102B300005D0FFE70299C8680968086104E00298B7
:102B400001680C480860FFE703A900200870FFE750
:102B500003A8007804B080BDCCCC0000555500001F
:102B600081B000900098016802480860002001B020
:102B70007047C046AAAA00002648027802490868A1
:102B8000801808607047C0467803002080B5064969
:102B90000868102210430860032000F007F800F0D6
:102BA0003DF8002080BDC0460020024080B584B0C2
:102BB0000290174800680190164801787D20C000F7
:102BC000FDF7DAFB01460198FDF7D6FB01F0AAF903
:102BD000002804D0FFE703A90120087014E0029840
:102BE000032809D8FFE702990022D04300F05EF8DD
:102BF00002980949086003E003A90120087003E076
:102C000003A900200870FFE703A8007804B080BD86
:102C100004000020100000201400002080B584B0C3
:102C2000FFE71448026801210A4302600068084077
:102C300003900398FFE7FFE7A8480268012109070E
:102C40000A4302600068084002900298FFE70120F2
:102C500001900022114600F029F8019800F01BF8BD
:102C6000FFE706490868102210430860FFE704B038
:102C700080BDC046181002401C10024000000140F8
:102C800080B582B0014601A801700021405603F0D2
:102C900033F902B080BD80B582B0014601A8017051
:102CA0000021405603F042F902B080BD80B584B0E7
:102CB000034603A803700291019200214056029935
:102CC00003F04AF904B080BD7047000080B5104899
:102CD0000068C00F002807D0FFE7FFF7F5FF0120CD
:102CE000C0070B490860FFE780BDC0467047000081
:102CF00080B507480068C003002807D5FFE7FFF745
:102D0000F5FF0120000402490860FFE780BDC046CE
:102D10001404014080B586B0049000200390029016
:102D200004988078C007002800D193E001A9002012
:102D300008706A480068C000002810D4FFE7FFE769
:102D400066480268012109070A43026000680840DA
:102D500000900098FFE701A901200870FFE7604894
:102D60000068C00500281DD4FFE75D4908680122FE
:102D7000120210430860FFF7ADFA0390FFE75848CE
:102D80000068C00500280CD4FFE7FFF7A3FA0399F9
:102D9000401A652804D3FFE705A90320087099E0CD
:102DA000EDE7FFE74F480068032109020840029061
:102DB0000298002838D0FFE7029804994968032256
:102DC0001202114088422FD0FFE7464908680322CB
:102DD0001202904302900868012212041043086016
:102DE0000868904308600298086002A80078C0074D
:102DF000002818D0FFE7FFF76DFA0390FFE7394886
:102E00000068800700280DD4FFE7FFF763FA0399F5
:102E1000401AB049884204D3FFE705A9032008708F
:102E200058E0ECE7FFE7FFE72E49086803221202AB
:102E30009043049A52681043086001A80078012862
:102E400007D1FFE72549086801221207904308606F
:102E5000FFE7FFE704980078C007002809D0FFE7E4
:102E60002149086803229043049A9268104308603D
:102E7000FFE7049800788006002809D5FFE71A4983
:102E8000086810229043049AD26810430860FFE754
:102E9000049880788007002809D5FFE71249086860
:102EA00080229043049A526910430860FFE7049817
:102EB00040784007002809D5FFE70B490868402201
:102EC0009043049A126910430860FFE705A90020A7
:102ED0000870FFE705A8007806B080BD1C1002400E
:102EE00000700040201002403010024080B584B0D5
:102EF000029001910298002804D1FFE703A9012064
:102F00000870D8E001986E49096801221140884292
:102F100012D9FFE76A48026801218A43019B1A43DC
:102F20000260006808400199884204D0FFE703A9C5
:102F300001200870BFE0FFE70298007880070028B2
:102F400016D5FFE7029800784007002807D5FFE76D
:102F5000A14908680722120210430860FFE79E4952
:102F60000868F0229043029A926810430860FFE7D5
:102F700002980078C007002861D0FFE702984068F7
:102F800001280BD1FFE74F4800688003002804D4D4
:102F9000FFE703A9012008708DE02CE0029840684B
:102FA00002280BD1FFE7474800688001002804D4BD
:102FB000FFE703A9012008707DE01BE0029840684C
:102FC00003280BD1FFE7404800688003002804D4A1
:102FD000FFE703A9012008706DE00AE039480068A6
:102FE0008007002804D4FFE703A90120087062E0ED
:102FF000FFE7FFE7FFE77849086803229043029A5A
:10300000526810430860FFF765F90090FFE77248C7
:1030100000680C21084002994968890088420DD057
:10302000FFE7FFF757F90099401A2A49884204D36D
:10303000FFE703A9032008703DE0E8E7FFE70198F8
:103040001F49096801221140884212D2FFE71C483B
:10305000026801218A43019B1A430260006808400C
:103060000199884204D0FFE703A90120087022E0FB
:10307000FFE702980078400700280AD5FFE7564985
:103080000868072212029043029AD268104308602F
:10309000FFE700F021F850490968C9B20A090B4955
:1030A000895CC8400A4908600320FFF77FFD03A937
:1030B00000200870FFE703A8007804B080BDC04678
:1030C0000020024000100240341002401C6500083D
:1030D000040000208913000080B586B00020059010
:1030E00004900390029001903B4800680590059879
:1030F0000C21084000900C2868D80098810001A09D
:1031000040588746CB310008CD310008CD3100084A
:10311000CD31000839310008CD310008CD3100082B
:10312000CD3100083F310008CD310008CD31000815
:10313000CD310008C53100082C48019049E00599BF
:103140000F20820411408A0C2549895C029125498F
:10315000096801402448405C049005980321C90394
:1031600008400121090488420BD1FFE7049A1F4857
:1031700000231946FDF758F8029AFDF73DF8039031
:103180001DE005980321C903084088420BD1FFE7E1
:10319000049A124800231946FDF746F8029AFDF7F3
:1031A0002BF803900AE0049A104800231946FDF713
:1031B0003BF8029AFDF720F80390FFE7FFE703983A
:1031C000019006E00548019003E0FFE70748019001
:1031D000FFE7019806B080BD04100240006CDC02DD
:1031E0002C6500082C1002403C65000800127A0093
:1031F00080B588B006900698002804D1FFE707A99B
:1032000001200870B1E306980078C007002800D1BB
:1032100097E0FE4800680C210840042811D0FFE721
:10322000FA4800680C21084008281AD1FFE7F7483F
:1032300000680321C903084001210904884210D114
:10324000FFE7F34800688003002809D5FFE70698E8
:103250004068002804D1FFE707A90120087084E333
:103260006EE0FFE706984068012807D1FFE7E849CC
:10327000086801221204104308602CE00698406898
:1032800000280BD1FFE7E2490868012213049843A4
:10329000086008689204904308601BE00698406844
:1032A00005280BD1FFE7DA49086801229304184387
:1032B000086008681204104308600AE0D4490868EE
:1032C0000122130498430860086892049043086040
:1032D000FFE7FFE7FFE7FFE706984068002817D001
:1032E000FFE7FEF7F7FF0590FFE7C9480068800396
:1032F00000280CD4FFE7FEF7EDFF0599401A65287A
:1033000004D3FFE707A9032008702EE3EDE716E0DA
:10331000FEF7E0FF0590FFE7BD4800688003002846
:103320000CD5FFE7FEF7D6FF0599401A652804D3B0
:10333000FFE707A90320087017E3EDE7FFE7FFE7C2
:10334000FFE706980078800700287AD5FFE7AF48A6
:1033500000680007800F002811D0FFE7AB48006825
:103360000C210840082824D1FFE7A8480068032161
:10337000C90308400121C90388421AD1FFE7A448C4
:1033800000688007002809D5FFE70698C068012873
:1033900004D0FFE707A901200870E6E29C4908680D
:1033A000F8229043069A1269D20010430860FFE7A2
:1033B00046E00698C068002825D0FFE794490868D1
:1033C000012210430860FEF785FF0590FFE7904853
:1033D0000068800700280CD4FFE7FEF77BFF059903
:1033E000401A032804D3FFE707A903200870BCE2B2
:1033F000EDE787490868F8229043069A1269D200DF
:10340000104308601BE0824908680122904308606D
:10341000FEF760FF0590FFE77D4800688007002801
:103420000CD5FFE7FEF756FF0599401A032804D391
:10343000FFE707A90320087097E2EDE7FFE7FFE742
:10344000FFE706980078000700283ED5FFE70698BA
:10345000C06900281CD0FFE76E49086801221043AC
:103460000860FEF737FF0590FFE76A4800688007AD
:1034700000280CD4FFE7FEF72DFF0599401A03281A
:1034800004D3FFE707A9032008706EE2EDE71BE015
:1034900060490868012290430860FEF71BFF059011
:1034A000FFE75C480068800700280CD5FFE7FEF7BF
:1034B00011FF0599401A032804D3FFE707A9032049
:1034C000087052E2EDE7FFE7FFE706980078400753
:1034D000002800D4C1E002A9002008704E4800680E
:1034E000C000002810D4FFE7FFE74B480268012125
:1034F00009070A4302600068084001900198FFE74D
:1035000002A901200870FFE744480068C0050028B0
:103510001DD4FFE7414908680122120210430860E8
:10352000FEF7D8FE0590FFE73C480068C00500287C
:103530000CD4FFE7FEF7CEFE0599401A652804D3A8
:10354000FFE707A9032008700FE2EDE7FFE7FFE7B9
:1035500006988068012806D1FFE7314908680122F2
:103560001043086029E00698806800280AD1FFE728
:103570002B490868012290430860086804229043A0
:10358000086019E00698806805280AD1FFE7FC4921
:10359000086804221043086008680122104308608C
:1035A00009E0F7490868012290430860086804228E
:1035B00090430860FFE7FFE7FFE7FFE706988068B2
:1035C000002818D0FFE7FEF785FE0590FFE7EC48DE
:1035D0000068800700280DD4FFE7FEF77BFE059901
:1035E000401AE849884204D3FFE707A9032008707E
:1035F000BBE1ECE724E0FEF76DFE0590FFE7E04855
:103600000068800700281AD50CE0C046041002406C
:1036100000100240241002401C10024000700040C4
:1036200020100240FEF756FE0599401AD5498842FF
:1036300004D3FFE707A90320087096E1DFE7FFE75F
:1036400002A80078012807D1FFE7CC4908680122C9
:10365000120790430860FFE7FFE706980078C0066E
:10366000002864D5FFE706984069012829D1FFE7C3
:10367000C549086804221043086008680122104305
:103680000860FEF727FE0590FFE7BF480068800747
:1036900000280CD4FFE7FEF71DFE0599401A032809
:1036A00004D3FFE707A9032008705EE1EDE7B64900
:1036B0000868F8229043069A9269D2001043086085
:1036C00034E006984069401D00280ED1FFE7AE495E
:1036D00008680422904308600868F8229043069A1C
:1036E0009269D200104308601FE0A74908680422CD
:1036F000104308600868012290430860FEF7EAFD65
:103700000590FFE7A0480068800700280CD5FFE778
:10371000FEF7E0FD0599401A032804D3FFE707A947
:103720000320087021E1EDE7FFE7FFE7FFE70698D8
:1037300000788006002867D5FFE78E4800680C21D6
:1037400008400C280FD0FFE78A4800680C21084089
:10375000082818D1FFE7874800680321C9030840FB
:10376000884210D1FFE7884800688003002809D507
:10377000FFE70698006A012804D0FFE707A90120A7
:103780000870F2E03FE00698006A00281DD0FFE7CD
:103790007D4908680122120410430860FEF79AFD73
:1037A0000590FFE778480068800300280CD4FFE705
:1037B000FEF790FD0599401A032804D3FFE707A9F7
:1037C00003200870D1E0EDE71CE06F490868012292
:1037D000120490430860FEF77DFD0590FFE76A48FC
:1037E0000068800300280CD5FFE7FEF773FD0599FC
:1037F000401A032804D3FFE707A903200870B4E0A8
:10380000EDE7FFE7FFE7FFE70698406A002800D1F1
:10381000A7E0584800680C210840082871D0FFE74D
:103820000698406A02284ED1FFE7534908680122F2
:10383000120690430860FEF74DFD0590FFE74E48E5
:103840000068800100280CD5FFE7FEF743FD0599CD
:10385000401A032804D3FFE707A90320087084E077
:10386000EDE7FFE7494908680F229043069A126B7B
:10387000104308603F4908687B22D2039043069BAF
:10388000DA6A9B6A1A4310430860FFE73A490868FE
:103890000122120610430860FEF71CFD0590FFE7A9
:1038A00035480068800100280CD4FFE7FEF712FDC0
:1038B0000599401A032804D3FFE707A903200870DD
:1038C00053E0EDE71CE02C49086801221206904302
:1038D0000860FEF7FFFC0590FFE7274800688001BD
:1038E00000280CD5FFE7FEF7F5FC0599401A0328E0
:1038F00004D3FFE707A90320087036E0EDE7FFE7F0
:103900002EE00698406A012804D1FFE707A90120AC
:1039100008702AE01748006804901C48006803906B
:1039200004980321C90308400699896A884211D185
:10393000FFE703980F2108400699096B884209D1D7
:10394000FFE704980F21890408400699C96A884254
:1039500004D0FFE707A90120087006E0FFE7FFE7B2
:10396000FFE707A900200870FFE707A8007808B064
:1039700080BDC04604100240001002401C100240EE
:103980002010024089130000341002402C10024025
:1039900010B584B002900298002804D1FFE703A973
:1039A000012008709DE00298406A00280DD1FFE7D1
:1039B0000298406841218900884201D1FFE703E075
:1039C00002990020C861FFE705E002990020086124
:1039D00002994861FFE702990020886202985D2100
:1039E000405C002808D1FFE702995C22002088543F
:1039F000029800F07DF8FFE702995D2202208854CA
:103A00000298016808684022904308600298C068E4
:103A10003649884203D3FFE70020019003E00120EC
:103A200000030190FFE70298C0680F210902884255
:103A30000BD0FFE70298C06807210902884204D032
:103A4000FFE7029900208862FFE7029A009250681F
:103A5000412189000840916821239B0219404018A8
:103A60001169022319404018536901210B40C01805
:103A700093694C022340C018D36938242340C018EE
:103A8000136A80242340C018936A4C0323401843D0
:103A900012681060029A9069000C04231840536A5F
:103AA00010242340C018536B08242340C018D36847
:103AB0000F2424022340C018019B0C032340C0188C
:103AC0001268506002980268D069CB029843D061B6
:103AD000029A00201066029A5D23D15403A908704F
:103AE000FFE703A8007804B010BDC046010700003E
:103AF00080B588B007900020069005900490039050
:103B00000290079800681649884227D1FFE7FFE72F
:103B100014480268012109030A4302600068084052
:103B200001900198FFE7FFE70F480268012149046F
:103B30000A4302600068084000900098FFE7E02018
:103B4000029002200390002004900321059106902A
:103B50000920C00602A9FEF727FAFFE708B080BDDA
:103B600000300140181002401410024010B58EB011
:103B7000109C0C900B910A9209A8038001200490DC
:103B800003A900200870FFE70C985C21405C012825
:103B900004D1FFE70DA902200870BDE10C995C2259
:103BA00001208854FFE7FFE7FEF794FB05900C988F
:103BB0005D21415C06A801700C994968079109993B
:103BC00008AA11800078012814D0FFE70798412146
:103BD000890088420AD1FFE70C988068002805D147
:103BE000FFE706A80078042804D0FFE703A9022015
:103BF000087087E10B98002809D0FFE70A98002891
:103C000005D0FFE709A80088002804D1FFE703A931
:103C10000120087076E10C985D21405C042805D0F5
:103C2000FFE70C995D2205208854FFE70C990020DE
:103C300008660A990C9A116409990C9A4623D15284
:103C400009990C9A4423D1520B990C9A91630999C2
:103C50000C9AD18709990C9A91870C99C8640C9990
:103C600008650C98C068AE49884208D3FFE70C98F5
:103C700001684868012212039043486007E00C98ED
:103C8000016848680122120310434860FFE70C985E
:103C90000068006840210840402807D0FFE70C98E2
:103CA00001680868402210430860FFE70C98C0686C
:103CB0009B49884200D281E00C984068002805D0DA
:103CC000FFE708A8008801280ED1FFE70C99886B50
:103CD00000880968C8600C99886B801C88630C99FF
:103CE000C88F401EC887FFE7FFE70C98C18F0120EF
:103CF0000029029007D1FFE70C984621405A411E47
:103D000088410290FFE70298C007002855D0FFE7DE
:103D10000C98006880688007002819D5FFE70C9888
:103D2000C08F002814D0FFE70498012810D1FFE7C6
:103D30000C99886B00880968C8600C99886B801C96
:103D400088630C99C88F401EC88700200490FFE745
:103D50000C9800688068C007002818D0FFE70C980E
:103D60004621405A002812D0FFE70C980068C0682E
:103D70000C99096C08800C99086C801C08640C99DB
:103D80004622885A401E885201200490FFE7FEF721
:103D9000A1FA0599401A109988420DD3FFE71098AF
:103DA000401C002808D0FFE703A9032008700C99E5
:103DB0005D2201208854A5E097E785E00C984068D3
:103DC000002805D0FFE708A8008801280ED1FFE7EA
:103DD0000C99886B0078096808730C99886B401CF3
:103DE00088630C99C88F401EC887FFE7FFE70C98CF
:103DF000C18F01200029019007D1FFE70C984621CF
:103E0000405A411E88410190FFE70198C0070028F1
:103E100059D0FFE70C98006880688007002819D502
:103E2000FFE70C98C08F002814D0FFE70498012802
:103E300010D1FFE70C99886B0078096808730C991A
:103E4000886B401C88630C99C88F401EC88700206F
:103E50000490FFE70C9800688068C007002818D01D
:103E6000FFE70C984621405A002812D0FFE70C9833
:103E70000068007B0C99096C08700C99086C401C58
:103E800008640C994622885A401E885201200490EA
:103E9000FFE7FEF71FFA0599401A1099884205D3EB
:103EA000FFE71098401C002804D1FFE71098002875
:103EB00008D1FFE703A9032008700C995D220120B7
:103EC00088541FE093E7FFE70C981099059A01F0DA
:103ED000BAF9002807D0FFE703A9012008700C9960
:103EE00020200866FFE70C98006E002804D0FFE74A
:103EF00003A90120087004E00C995D220120885478
:103F0000FFE7FFE7FFE70C995C2200208854FFE7FA
:103F100003980DA90870FFE70DA800780EB010BD3A
:103F20000107000080B582B00190019801F018FBF4
:103F300002B080BD81B0009001B0704781B00090A8
:103F400001B0704785B003900291FFE703983C21D0
:103F5000405C012804D1FFE704A9022008704DE06D
:103F600003993C2201208854FFE7FFE703993D2293
:103F70000220885403980068406801900398006804
:103F80008068009001987021884301900298016830
:103F900001980843019001980399096848600398C3
:103FA0000068BE4988420DD0FFE7039800680121F0
:103FB0008907884206D0FFE703980068B84988421D
:103FC0000ED1FFE700988021884300900298416855
:103FD0000098084300900098039909688860FFE7FB
:103FE00003993D2201208854FFE703993C220020D9
:103FF0008854FFE704A900200870FFE704A80078B0
:1040000005B0704780B582B000900098002804D1B8
:10401000FFE701A9012008703FE000983D21405CC6
:10402000002808D1FFE700993C220020885400981E
:1040300000F038F8FFE700993D22022088540099EB
:1040400001C901F00FFB0099462201208854FFE7C7
:1040500000993E220120885400993F2288540099FB
:1040600040228854009941228854FFE7FFE70099D5
:104070004222012088540099432288540099442206
:104080008854009945228854FFE700993D22012079
:10409000885401A900200870FFE701A8007802B049
:1040A00080BD000080B588B00790079800680121A6
:1040B0008907884215D1FFE7FFE7304802680121F0
:1040C0000A4302600068084006900698FFE70F2048
:1040D000029001210022FEF7E9FD0298FEF7DBFDC8
:1040E00043E0079800686E49884215D1FFE7FFE773
:1040F0002248026802210A430260006808400590D5
:104100000598FFE71020019001210022FEF7CEFD67
:104110000198FEF7C0FD27E007980068144988421F
:104120000DD1FFE7FFE715480268012109020A43A4
:1041300002600068084004900498FFE713E00798C5
:1041400000680C4988420DD1FFE7FFE70A48026882
:10415000012149040A430260006808400390039863
:10416000FFE7FFE7FFE7FFE7FFE708B080BDC046D6
:104170000020004000440140181002401C10024082
:1041800083B0019001983D21405C012804D0FFE7F5
:1041900002A90120087033E001993D2202208854D1
:1041A000019800683D4988420DD0FFE701980068FA
:1041B00001218907884206D0FFE701980068384945
:1041C000884212D1FFE70198006880680721084003
:1041D00000900098062807D0FFE70198016808685A
:1041E000012210430860FFE706E0019801680868B3
:1041F000012210430860FFE702A900200870FFE7D2
:1042000002A8007803B0704783B0019001983D2167
:10421000405C012804D0FFE702A90120087039E0C2
:1042200001993D220220885401980168C868012242
:104230001043C86001980068184988420DD0FFE714
:104240000198006801218907884206D0FFE701989C
:1042500000681349884212D1FFE70198006880681E
:104260000721084000900098062807D0FFE7019832
:1042700001680868012210430860FFE706E0019822
:1042800001680868012210430860FFE702A90020C6
:104290000870FFE702A8007803B07047002C0140C7
:1042A0000004004080B586B00490039102A900206C
:1042B0000870FFE704983C21405C012804D1FFE727
:1042C00005A902200870AEE004993C220120885420
:1042D000FFE7FFE704993D22022088540498006814
:1042E0008068019001987721884301900198FF210F
:1042F000090288430190019804990968886003982D
:1043000000680090002875D0FFE70098102871D051
:10431000FFE7009820286DD0FFE70098302869D08B
:10432000FFE70098402858D0FFE7009850283AD07F
:10433000FFE70098602843D0FFE7009870280DD071
:10434000FFE7009801210903884206D0FFE70098A3
:1043500001214903884216D053E056E004980068D2
:10436000039B99685A68DB6801F035FA0498006885
:104370008068019001987721084301900198049981
:104380000968886041E004980068039B99685A684E
:10439000DB6801F020FA0498016888680122920322
:1043A0001043886031E004980068039A5168D2682D
:1043B00001F08AFA04980068502101F027FA24E0FD
:1043C00004980068039A5168D26801F0A5FA04982D
:1043D0000068602101F01AFA17E004980068039A57
:1043E0005168D26801F070FA04980068402101F029
:1043F0000DFA0AE0049800680399096801F006FACA
:1044000003E002A901200870FFE704993D22012082
:104410008854FFE704993C2200208854FFE7029863
:1044200005A90870FFE705A8007806B080BD81B037
:10443000009001B0704780B584B003900398006885
:10444000C0680290039800680069019001A8007894
:104450008007002825D5FFE702A8007880070028FC
:104460001ED5FFE7039801680220C0430861039945
:10447000012008770398006880698007002804D02D
:10448000FFE70398FFF7D3FF06E0039800F0E6F894
:10449000039800F0E7F8FFE7039900200877FFE7AB
:1044A000FFE701A800784007002826D5FFE702A80B
:1044B0000078400700281FD5FFE703980168042013
:1044C000C043086103990220087703980068806957
:1044D0008005800F002804D0FFE70398FFF7A7FFAF
:1044E00006E0039800F0BAF8039800F0BBF8FFE785
:1044F000039900200877FFE7FFE701A8007800078D
:10450000002825D5FFE702A80078000700281ED55F
:10451000FFE7039801680820C0430861039904205D
:10452000087703980068C0698007002804D0FFE777
:104530000398FFF77CFF06E0039800F08FF80398DC
:1045400000F090F8FFE7039900200877FFE7FFE706
:1045500001A80078C006002826D5FFE702A8007849
:10456000C00600281FD5FFE7039801681020C0434C
:10457000086103990820087703980068C0698005DE
:10458000800F002804D0FFE70398FFF750FF06E0F4
:10459000039800F063F8039800F064F8FFE70399CC
:1045A00000200877FFE7FFE701A80078C007002890
:1045B00010D0FFE702A80078C007002809D0FFE765
:1045C000039801680120C0430861039800F00AF9CC
:1045D000FFE7FFE701A800780006002810D5FFE7F5
:1045E00002A800780006002809D5FFE703980168B3
:1045F0008020C04308610398FFF79CFCFFE7FFE7BA
:1046000001A800784006002810D5FFE702A800782E
:104610004006002809D5FFE7039801684020C04301
:104620000861039800F036F9FFE7FFE701A800787A
:104630008006002810D5FFE702A800788006002831
:1046400009D5FFE7039801682020C043086103985B
:10465000FFF774FCFFE7FFE704B080BD81B0009076
:1046600001B0704781B0009001B0704780B58CB048
:104670000A9009910998002805D1FFE70A983E2180
:10468000405C07901CE00998042805D1FFE70A98D0
:104690003F21405C069010E00998082805D1FFE70B
:1046A0000A984021405C059004E00A984121405C52
:1046B0000590FFE705980690FFE706980790FFE74B
:1046C0000798012804D0FFE70BA90120087083E0B8
:1046D0000998002805D1FFE70A993E220220885454
:1046E0001EE00998042806D1FFE70A993F2202201C
:1046F0008854049012E00998082806D1FFE70A9927
:10470000402202208854039005E00A9941220220A9
:1047100088540390FFE703980490FFE70498FFE7AD
:104720000A98006809990122019201F03BF801986A
:104730000A9909684E4A9142029010D0FFE70A9800
:10474000016801204D4A9142029008D0FFE70A9883
:10475000006823494018414248410290FFE702980F
:10476000C007002808D0FFE70A980168486C0122BA
:10477000D20310434864FFE70A9800683C49884226
:104780000DD0FFE70A98006801218907884206D00A
:10479000FFE70A9800683749884212D1FFE70A9874
:1047A000006880680721084008900898062807D00C
:1047B000FFE70A9801680868012210430860FFE7D4
:1047C00006E00A9801680868012210430860FFE7C4
:1047D0000BA900200870FFE70BA800780CB080BD83
:1047E00000B8FEBF80B582B00190019800682049F2
:1047F000884204D1FFE726484068804735E00198A9
:10480000006801218907884204D1FFE71F484068FA
:10481000804729E0019800681649884204D1FFE7E3
:104820001948406880471EE0019800681249884294
:1048300004D1FFE713484068804713E001980068FF
:104840000E49884203D1FFE7FEF796F909E0019887
:1048500000680B49884203D1FFE7FEF78DF9FFE7B7
:10486000FFE7FFE7FFE7FFE7FFE702B080BDC046D5
:10487000002C0140000400400020004000440140A2
:104880000048014010010020080100200001002024
:10489000F800002081B0009001B07047FFE7FEE70C
:1048A00081B00090009800688069022108404008AB
:1048B000002805D0FFE70098016800208862FFE724
:1048C000009800688069C007002807D1FFE70098BA
:1048D00001688869012210438861FFE701B07047D1
:1048E00080B58AB009900891079206A90020087047
:1048F000099909688969059104900798039005A8AA
:104900000078C006002800D484E0099801681020CF
:10491000C861FFE7099800688069202108404109C3
:1049200000200029009006D1FFE706A80078414248
:1049300048410090FFE70098C007002858D0FFE7E3
:104940000898401C002852D0FFE7FDF7C3FC0399EC
:10495000401A0899884204D8FFE70898002845D1F2
:10496000FFE7099800684068012189030840029028
:1049700009984221405C01A9087009980068806983
:1049800080B2C00B002816D0FFE7029801218903EE
:10499000884210D0FFE701A8007820280BD0FFE75D
:1049A0000998016848680122920310434860FDF7A6
:1049B00091FC0390FFE7FFE70998006880692021D8
:1049C00008404009002810D1FFE7FDF783FC039958
:1049D000401A1A2808D3FFE70498202108430490BE
:1049E00006A90120087000E0E6E7FFE7FFE791E78E
:1049F00006A80078002805D1FFE709980168202063
:104A0000C861FFE7049804210843049006A9012027
:104A10000870FFE7099800688069059005A840784C
:104A2000C00700280BD0FFE704990120014304913F
:104A300009990A680102D16106A90870FFE705A873
:104A40004078400700280CD5FFE704980821084368
:104A500004900998026801208102D16106A90870BA
:104A6000FFE705A84078800700280CD5FFE70498E9
:104A70000221084304900998026801204102D16193
:104A800006A90870FFE706A8007800281DD0FFE7F8
:104A90000998FFF705FF0998016848680D4A10401A
:104AA0004860049A0999486C104348640999412266
:104AB000202088540999422200208854FFE7099950
:104AC000402200208854FFE7FFE706A800780AB0DC
:104AD00080BDC04600E800FE10B588B002910146D6
:104AE00002980B9C0A9C069105A9088004A80280E4
:104AF00003AA1380069809881278534B0093002369
:104B000000F0A4F806980A990B9A00F07AF90028A8
:104B100004D0FFE707A90120087034E003A800884B
:104B2000012806D1FFE704A8007806990968886281
:104B300016E004A8407806990968886206980A99E0
:104B40000B9A00F05EF9002804D0FFE707A90120C6
:104B5000087018E004A80078069909688862FFE7E1
:104B600006980A9B0B9900914021002200F098F8CA
:104B7000002804D0FFE707A90120087003E007A977
:104B800000200870FFE707A8007808B010BDC046F5
:104B900010B588B00291014602980B9C0A9C0691C0
:104BA00005A9088004A8028003AA13800698098832
:104BB0001278254B009301231B0600F047F8069856
:104BC0000A990B9A00F01DF9002804D0FFE707A905
:104BD0000120087034E003A80088012806D1FFE70F
:104BE00004A8007806990968886216E004A840784D
:104BF00006990968886206980A990B9A00F001F9EB
:104C0000002804D0FFE707A90120087018E004A8D5
:104C10000078069909688862FFE706980A9B0B9955
:104C200000918021002200F03BF8002804D0FFE72B
:104C300007A90120087003E007A900200870FFE71A
:104C400007A8007808B010BD0020008010B585B01E
:104C5000079C049003A8018002A90A7001930088B0
:104C60000D4A104009780904401801990843079932
:104C700008430121C90788430090049800684068F0
:104C80000799490D8843054908400099084304994C
:104C90000968486005B010BDFF030000009C00FCDF
:104CA00010B586B0089C0490039102A8027001938D
:104CB000FFE704980068806903990840401A414260
:104CC000484102A90978884243D1FFE70498019935
:104CD000089AFFF705FE002804D0FFE705A9012088
:104CE00008703AE00198401C002831D0FFE7FDF73A
:104CF000F1FA0899401A0199884204D8FFE701980F
:104D0000002824D1FFE704980068806903990840CF
:104D1000401A4142484102A90978884216D1FFE76A
:104D2000049A516C20200143516404994122885413
:104D30000499422200208854FFE704994022002071
:104D40008854FFE705A90120087006E0FFE7FFE7A8
:104D5000AFE705A900200870FFE705A8007806B0B6
:104D600010BD80B584B0029001910092FFE70298D7
:104D700000688069202108404009002839D1FFE7F8
:104D800002980199009AFFF7ABFD002804D0FFE7D5
:104D900003A90120087030E0FDF79CFA0099401A41
:104DA0000199884204D8FFE70198002820D1FFE745
:104DB000029800688069202108404009002816D127
:104DC000FFE7029A516C202001435164029941226D
:104DD00088540299422200208854FFE70299402219
:104DE00000208854FFE703A90120087005E0FFE7D1
:104DF000BDE703A900200870FFE703A8007804B00E
:104E000080BD80B584B0029001910092FFE70298C6
:104E10000068806902210840400800283FD1FFE770
:104E200002980199009AFFF75BFD002804D0FFE784
:104E300003A90120087036E00198401C00282DD0FD
:104E4000FFE7FDF747FA0099401A0199884204D814
:104E5000FFE70198002820D1FFE7029800688069E9
:104E6000022108404008002816D1FFE7029A516C41
:104E70002020014351640299412288540299422220
:104E800000208854FFE70299402200208854FFE761
:104E900003A90120087006E0FFE7FFE7B7E703A9D1
:104EA00000200870FFE703A8007804B080BD000070
:104EB00080B582B00F4800900F4901600621416023
:104EC000002101918160C16003221204026101226C
:104ED00052054261017641768176C176017741774C
:104EE000FCF77FFD002803D0FFE7FCF7ACF8FFE7F5
:104EF00002B080BD200100200064004010B58EB0DB
:104F000000200D900C900B900A900990FFE72F481D
:104F10000268012189050A43026000680840089080
:104F20000898FFE7FFE729480268012149040A437E
:104F300002600068084007900798FFE7FFE72348F2
:104F40000268012189040A43026000680840069053
:104F50000698FFE70920C00600901824002204925A
:104F60002146FDF7A0F9049A194802900121019108
:104F7000FDF799F90098049904220992212212045C
:104F80000A920B9109A90391FDF70EF80098019B75
:104F90000399049A09940A930B920C92FDF704F872
:104FA000019B02980399049A099311240A940B9384
:104FB0000C92FCF7F9FF049A062005901146FDF7C4
:104FC00075FE0598FDF767FE0EB010BD1410024087
:104FD0000004004880B582B016480190164901606F
:104FE00016494160002181600122C2600161416176
:104FF0008161C1610162FDF727FA002803D0FFE754
:10500000FCF721F8FFE70B480021FDF769F90028BC
:1050100003D0FFE7FCF717F8FFE706480021FDF78C
:10502000AAF9002803D0FFE7FCF70DF8FFE702B06C
:1050300080BDC0464801002000540040901C9000F4
:1050400080B508480849016005214160FA21C16026
:105050008160FDF72DFD002803D0FFE7FBF7F3FF8C
:10506000FFE780BD9C0100200030004080B582B089
:1050700011480190114901604121890041600021DE
:10508000816007221302C36002230361012343618D
:105090005B0283612823C361016241628162C26253
:1050A00001634163FEF774FC002803D0FFE7FBF7C0
:1050B000CAFFFFE702B080BDAC0100200030014014
:1050C00080B50A480A4901602F21416000218160B2
:1050D000364AC26001618161FEF794FF002803D067
:1050E000FFE7FBF7B0FFFFE780BDC04610020020DE
:1050F0000020004080B582B00B4801900B49016050
:105100000B4A426000218160C260012252020261AA
:1051100041618161FEF776FF002803D0FFE7FBF7CE
:1051200092FFFFE702B080BD58020020004401401A
:10513000FFFF000080B588B0002101910791069122
:105140000591049103910291174801229207026090
:105150002F2242608160154AC26001618161FEF7C1
:1051600051FF002803D0FFE7FBF76DFFFFE70120A9
:10517000000304900C4804A9FFF794F8002803D01A
:10518000FFE7FBF760FFFFE700200290039006486F
:1051900002A9FEF7D7FE002803D0FFE7FBF753FF75
:1051A000FFE708B080BDC046A0020020E703000072
:1051B00080B588B000210191079106910591049175
:1051C000039102911748184A0260184A426010225F
:1051D0008260174AC26001618161FEF713FF0028F7
:1051E00003D0FFE7FBF72FFFFFE701200003049048
:1051F0000C4804A9FFF756F8002803D0FFE7FBF797
:1052000022FFFFE7002002900390064802A9FEF764
:1052100099FE002803D0FFE7FBF715FFFFE708B072
:1052200080BDC046E8020020000400405C1200007F
:10523000FF0F0000FFE7FEE780B5FDF759FDFDF722
:1052400045FD80BD704780B586B004900391029201
:105250000498039B029900910321C902002200F0E7
:105260003DF8002809D0FFE70499086E202210437A
:10527000086605A9032008702CE00498039B029996
:1052800000918021002200F0D1F8002809D0FFE72A
:105290000499086E20221043086605A903200870AF
:1052A00018E00498039B029900910321490200220F
:1052B00000F014F8002809D0FFE70499086E2022B6
:1052C0001043086605A90320087003E005A9002023
:1052D0000870FFE705A8007806B080BD10B58CB057
:1052E0000E9C0A9009910892079302A90020087069
:1052F00007980190FCF7EEFF024601980E99891A73
:1053000040180590FCF7E6FF04900A9800680C30FE
:10531000039005999048026823205043000D4843AC
:105320000690FFE70A980068806809990840089984
:10533000884273D0FFE709980321490288420AD1C5
:10534000FFE70898002806D1FFE70398007802A934
:1053500008700298FFE70798401C00285DD0FFE71F
:10536000FCF7B8FF0499401A0599884204D2FFE778
:105370000598002846D1FFE70A9801684868E022AE
:10538000904348600A98406841218900884215D1BD
:10539000FFE70A9880680121C903884207D0FFE728
:1053A0000A98806801218902884207D1FFE70A989C
:1053B00001680868402290430860FFE70A98806A05
:1053C0000121490388420FD1FFE7FFE70A980168EE
:1053D000086801225203904308600A98016808682F
:1053E00010430860FFE7FFE70A995D220120885417
:1053F000FFE70A995C2200208854FFE70BA90320ED
:1054000008700FE00698002803D1FFE70020059000
:10541000FFE70698401E0690FFE783E70BA90020F0
:105420000870FFE70BA800780CB010BD10B58AB06B
:105430000C9C0890079106A80270059305980190AE
:10544000FCF748FF024601980C99891A401803900E
:10545000FCF740FF029003993F4800684001000DAF
:1054600048430490FFE7089800688068079908405F
:10547000401A4142484106A90978884263D0FFE7B3
:105480000598401C00285DD0FFE7FCF723FF029938
:10549000401A0399884204D2FFE70398002846D1B6
:1054A000FFE7089801684868E02290434860089840
:1054B000406841218900884215D1FFE7089880683B
:1054C0000121C903884207D0FFE7089880680121BD
:1054D0008902884207D1FFE70898016808684022DE
:1054E00090430860FFE70898806A012149038842D9
:1054F0000FD1FFE7FFE7089801680868012252030F
:105500009043086008980168086810430860FFE746
:10551000FFE708995D2201208854FFE708995C2283
:1055200000208854FFE709A9032008700FE00498C1
:10553000002803D1FFE700200390FFE70498401EF6
:105540000490FFE78FE709A900200870FFE709A88A
:1055500000780AB010BDC04604000020704700006B
:1055600080B584B002900298401E000E002803D03F
:10557000FFE70120039011E00298401E09490860EE
:1055800000200190C043032100F0E6FC0198064989
:105590000860064A072111600390FFE7039804B0F2
:1055A00080BDC04614E000E018E000E010E000E03C
:1055B00080B5FDF7E1FA80BD80B59AB00DA80190E5
:1055C0003421FAF7D7FE0198002102910C910B913A
:1055D0000A9109910891079106910591049103910F
:1055E00009220D9201220E921492022316931304A3
:1055F0001793120518921991FDF7FAFD002803D0B0
:10560000FFE7FBF720FDFFE70720099002200A9043
:1056100000200B900C9009A80121FDF767FC0028E1
:1056200003D0FFE7FBF70FFDFFE7202003901020DA
:10563000069003A8FDF76EFB002803D0FFE7FBF7F9
:1056400002FDFFE71AB080BD7047000080B5E44856
:10565000FEF7F1FE80BDC04680B5E348FEF7EBFEE5
:1056600080BDC04683B0029001910298006800900E
:1056700002988E4988420BD0FFE7029801218907E2
:10568000884205D0FFE70298894988420AD1FFE79E
:105690000098702188430090019841680098084361
:1056A0000090FFE70298814988421AD0FFE70298EC
:1056B00001218907884214D0FFE702987C4988427B
:1056C0000FD0FFE702987B4988420AD0FFE7029893
:1056D0002549884205D0FFE70298244988420BD12A
:1056E000FFE7009803210902884300900198C168F0
:1056F000009808430090FFE70098802188430199B3
:1057000049690843009000980299086001988068F0
:105710000299C862019800680299886202986349F8
:1057200088420AD0FFE702980F49884205D0FFE778
:1057300002980E49884205D1FFE701980069029955
:105740000863FFE702990120486102980069C007D9
:10575000002806D0FFE702990869012290430861FA
:10576000FFE703B07047C0460044014000480140D5
:1057700080B50A480178491C0170007804280BDBC9
:10578000FFE7AE4801889448054A0823FBF732FC3E
:10579000024900200870FFE780BDC04618010020C4
:1057A0007800002084B0039002910192029A1F2198
:1057B0000A40012090400090009B039A106A984391
:1057C0001062019A0298084082400399086A1043C7
:1057D000086204B0704785B004900391029201936F
:1057E0000498806800900098FF2109028843009087
:1057F00003990298019A120210430143009808434A
:10580000009000980499886005B0704783B00290BA
:105810000191029880680090009870218843009060
:1058200001980099084307210843009000980299C5
:10583000886003B07047000082B001900091019829
:1058400000681A49884206D1FFE701981D4908609F
:105850000098486027E00198006801218907884284
:1058600006D1FFE70198164908600098486019E0E2
:10587000019800680E49884206D1FFE701980F4958
:105880000860009848600CE0019800680949884267
:1058900006D1FFE701980849086000984860FFE7D3
:1058A000FFE7FFE7FFE702B07047C046002C01406A
:1058B0000004004000200040F0000020080100200B
:1058C00000010020F800002085B0049003910292AE
:1058D0000498006A00900499086A012290430862C3
:1058E0000498806901900198F02188430190029802
:1058F000010101980843019000980A218843009013
:1059000003990098084300900198049988610098D1
:105910000499086205B0704785B004900391029223
:105920000498006A00900499086A10229043086263
:1059300004988069019001980F2109038843019020
:10594000029801030198084301900098A021884320
:105950000090039801010098084300900198049971
:10596000886100980499086205B0704780B584B0DA
:1059700000F04CF818481949FBF70EFB1848029044
:105980001849FFF759FF184803901849FFF754FFCB
:10599000934817490922D206102300F03BFAA94880
:1059A0000168144808607F20C005009012483F211C
:1059B0000906124A002300F07DFA0298FEF724FC43
:1059C0000398FEF721FC0E48FEF7DAFB0398082146
:1059D000FEF74CFE04B080BD20010020EF5C000803
:1059E000A0020020455A0008E8020020515C00088F
:1059F000AC010020CCCC0000C00000200AD7A33CA2
:105A00005802002080B500F0E9FA80BD80B584B06E
:105A10000920C006082101220392FCF744FC0398E8
:105A2000642102910190054800900548A0210422BC
:105A30000223FCF799FD04B080BDC04600000020A1
:105A400048010020B0B588B06548079000F004FA1E
:105A500001460798634A118000F053F90146079800
:105A6000614A118000F0BCF9014607985F4A116055
:105A700000F0A2F9014607985D4A11605D4A116085
:105A800000F06EF901465C48016000685B490968F6
:105A900000F09CFC5A4900F041FC5A4908605A4801
:105AA00000685A490860FFE758480068584900F004
:105AB0005BFB002809D1FFE7544806900068624963
:105AC00000F092FB06990860EEE7FFE74F48006898
:105AD000504900F03EFB002809D1FFE74B480590F4
