:10000000020EABD2A2D2A5D2A32222020F53758038
:10001000FF5394035393034394025393FD5394FE6D
:10002000439301E47E34FE107E24007E7A1BB07E72
:1000300034FE187E1BB054FE7A1BB07E1BB044FE0B
:100040007A1BB07E34FE207E1BB044FC7A1BB07E4F
:100050001BB054FC7A1BB074FF7E34FE287A1BB0B0
:100060007E34FE307A1BB02275A0FF539604539560
:10007000044396045395FBE47E34FE127E24007EF6
:100080007A1BB074FF7E34FE1A7A1BB07E34FE22D7
:100090007E1BB044C27A1BB07E1BB054C27A1BB028
:1000A0007E34FE2A7E1BB044FE7A1BB07E1BB05409
:1000B000FE7A1BB074FF7E34FE327A1BB0229F1191
:1000C000C2A2C2A37E3020C2A500002F1130A4031B
:1000D0004E7001D2A500001B3078ECD2A26D332205
:1000E000020F7F020E660203E26E00807CB1337C59
:1000F000B033680D0468EF7CB5337CB43378037F8C
:1001000010220468E17D5092F77D457D51BF21406A
:10011000067C807F017F121203A57EA1D05CB00413
:10012000780320D5C17CB00478075002B2D5020311
:10013000EA92D5BE80FF68F67CB89CB06C00602A5D
:10014000B418057C410203BE50FB80032F00047CE1
:100150009B5E900778F630E4067C437D106D00309E
:10016000E3087C437C327C210A0030F5199F10782B
:100170000E220203E71B8068F92F1150020B707CDE
:10018000B530E7F1801B2D317CB5A5397C5B501172
:100190000B8078030203EA1E341350034E60801A6A
:1001A0002B0203BE5D22680D5D0078122D220B40EC
:1001B00068099F11222D000B0078F90203E2120357
:1001C000A55C800B806808248150072CB0500A027F
:1001D00003EA2CB040030203E77C8B5D1178267C98
:1001E000B17CA5BE1080680A5D33780DA5BD800581
:1001F0007F100203D46D0080307F017C5B7CB17C7A
:10020000A5AD1280245D337806A5BD80F080E1CADB
:10021000887D41AD437CB17CA5AD122D1450020BFD
:10022000047C5BAD232F01DA88A42D05BE0080403D
:10023000060B80780480982F007C437C507C617C86
:10024000720203BEBE24FFFF6806BE04FFFF7803F0
:100250000203E21203A55CB00468F57CB8A5486807
:10026000EF7CB870039F1122A5B800030203EA2EA9
:10027000008150079C8038070203E79C8050ED0AFC
:1002800051C2E74D5178030203D47E5400807E9022
:100290001A6C0080061B9068142F11BF1040049F39
:1002A000104CAB0330E7EECAA86CAA80E8DA39DA62
:1002B000587C4ABE5080500A1B8068BC2F115002E7
:1002C0000B700203BE74F86CAA6E40806E0080BE94
:1002D000B0FF68277C837C975C3B5C7BBF10682AFF
:1002E000F4400D7C382D15F45C3B500F0B04800B53
:1002F0007C792D35F45C7B50020B24BF10680B7C9D
:10030000B020E7067CB420E701B3227EA020800C59
:100310007EA01080057EA0086C556D333392D550B9
:100320000A6E34FFFF6E24FFFF0B1CA5EC33400662
:100330002F11D5F0F6227CBA247EA2D5137C767CD0
:1003400065A5CC92E77C5B227CB5337CB43392D537
:100350004E5080248140039F11227C457C567C674F
:100360006C7724E0500E7E1CFFFF221E341E2450AA
:10037000034E60800478F430D50A6E34FFFF6E249B
:10038000FFFF0B1C227F707F517EC400007ED400D3
:10039000517E9403980204234005E47A7BB0227ACC
:1003A0007BB00B7C222D0092D50E104E10807D422A
:1003B0002D445002B2D54E50806C447CB8222C445F
:1003C00050120B1C7E40005E507FBE180000780467
:1003D0000B806816A2D57CB8137C4B7CB592E77C69
:1003E0005B227E1CFFFF229F11227E24FF8020D5EE
:1003F000026C456D3322540F2490D43440D430F332
:100400000CBEB0414007BEB05B500224204CCC680B
:10041000021BC00B84D389944CCC680B742012044B
:100420000D80F5CA3B6D889F337CAE7E5BB00B5C64
:100430007007C37D38DA3B8994B42569C2F37E5BCB
:10044000B00B5CA5F824D0BEB00A501B7E500A2029
:10045000F60DAC5CA52D7CCB70034EF00180DDACBD
:100460005DA52D7CDB80D524CFBEB01AA5E8500554
:100470005E00DFD2F39007F8A3E4936011BCB0787C
:10048000F77417934CAB30F6B34EF08080AEA3E414
:10049000936010BCB078F77416937C3B7423937C04
:1004A0002B89147CB08013742012040D20F205BE39
:1004B000C00250F31B6D29B6000112040D0204188E
:1004C0001B6E691600020B6A00BE08000078087EE9
:1004D0000400FF7E140FCE20F21E4CCC681A7F1051
:1004E000E47E1B804C8868070B1C04BCBD78F2C2FC
:1004F000F6CA0B1205F7DA0B7E0BB060C0CA0B12FE
:10050000040DDA0B0B0C4CDD68EE1BD078EA80ADE5
:10051000D2F07E101080037E10085EB05F800AD299
:10052000F67E100A80057E100AC2F66D119F117EBC
:1005300000201B6C7E6B7030F6021A3720F1051B11
:100540006C7E6B6030F6041A261A2430F0051B6DA1
:100550000B6A20A5EC3382F692F6500A7CEA9F22C1
:100560009F217F127CAE4C44780F7C457C567C6783
:100570006C772E00F878EF80122F117CB3337C3B20
:100580009CB140047C3B0B70A5D8EE7CB230E005FA
:10059000DAB8C44C3BCA380B207E00207E3000BE47
:1005A00018000078C1BE1008780730F404C2F48047
:1005B000B5CA287CB2BCBD38027CBD1205F7DA286A
:1005C000BC2D500A1BD0E4CA281203F680F07CB27E
:1005D00013DAB84004C4CAB8C4CA28BEF0804009BF
:1005E0005CDD7805A5DA0260065EF07F1203F6DABC
:1005F00028A5DADA020418BEF001680F30F40224EC
:100600000220F50620F70330F6010420F229BCBCD5
:100610005025CAB87CBF13B0E67420501174307CEA
:100620008A5E80F068081206375EA00F800312040D
:100630000DDAB8BCBC78DB30F40F743012040D74E2
:100640005830F302747812040D30F605742D02044C
:100650000D742B20F5F8742020F7F3221B6C7E6BB1
:10066000B010F1021B6C20F60B30E704F404D2F258
:100670007CCB800520E7057CDB02043C5EF07F80BC
:10068000F81B6E691600020B6A0030F0076D221B22
:100690000A200B0D1B0A80020427E46C22BE3007DF
:1006A000500B7F1F2D312E34FFF77E39B0227CBFD7
:1006B00020E7A8742E4EF08002040D1207E1403DA1
:1006C0007CBD7003047CDB1208F87C3D4C33681061
:1006D0001B307CBE20E40912069A70044C3378F07B
:1006E0007CBD7CD3BEA0FD481CBCAB5818E49CBAB2
:1006F0002CB31801E47CDB0207821207E1406E7C18
:10070000BD041208F87AFBA07CAE7CBDA2F492F086
:10071000C2F4400260010424051205F77E30FF0B8D
:100720003012069ACA381203F620F0044CDD680332
:100730001206AEDA38BC3D78E6740E1203F6742B5E
:100740007EFBA030F707742D6EA0FF0BA07AFBA0F4
:1007500012040D7EA00A7EFBB0847AFBA01203F681
:100760007EFBB01203F69EF80008020418D2F27E57
:10077000D0000204D71207E140F37CBA2CBD04126A
:1007800008F87AFBA07CBA7CAE30E701E40420F4E0
:10079000044CDD6805D2F0C2F4042CBD1205F76CE0
:1007A000337EFBB0601B20E712147AFBB012069A6E
:1007B000CA381203F6DA380B3080E6047AFBB01B35
:1007C0003012069ACA381203F64CDD68071206AEDC
:1007D0001BD080E19EF8000930F0031206AE02043F
:1007E000187CEA7CAF10F7037ED0067CFA1B6E699A
:1007F0003600020B6A200208402D2B204C42482371
:100800002E0053584F44494355502A4E4645470001
:100810000420800102001040C012171F1FAC2610D8
:100820005C8175FABB040505050504050506060788
:1008300006064E614E002B494E46002D494E46009D
:100840007D522D557CBE92E67CEB7CBA601F047015
:10085000287CB5C2E77E0400FF60067E140832D310
:10086000227E14083B40047E140836D322DA099F06
:1008700022CA2BCA2BC3CA09220A0A7E144D10AD04
:10088000109E083AF09E10267CB5C2E77EA0567CEA
:100890009BA46E54FFFF2E54C511ACA92D15E4A5E1
:1008A00039CAB8CA1B20E70A12096BDA1B120244C4
:1008B000800AF40412096BDA1B1201A4DAA87CB5D1
:1008C000337CB4334E50806C4424822F111478FB57
:1008D000DA497407BE400A40099E400ACA02011460
:1008E0000BA0CA486C442F117F012F112F112F101C
:1008F0001478EFCA48CA49227F0F20E73ABEB007F2
:10090000400274070A0B2D109E1400097E19B02EA8
:10091000B0FB501F4C116817E47A19B01B147E19F4
:10092000B0047A19B0B40A0BE47A19B0A5D9ED0B6A
:10093000A074017A19B0225EE0BF223F800000411E
:1009400020000042C80000447A0000461C400047D6
:10095000C35000497424004B1896804CBEBC205AEA
:100960000E1BCA6753C21C749DC5AE7C7B600654C7
:1009700007681623231209907CB75438680A7F1041
:1009800012098D1201A47F01227CB7543803241C64
:100990006CAA2E54093B7E4400FF0B2A006912000A
:1009A0000222C2D57CB430E708B2D56E24FFFF0B1B
:1009B000247CB630E712B2D56E34FFFF0B348D3293
:1009C0006E24FFFF0B2480028D3230D5066E34FF7B
:1009D000FF0B3422CA3B7F707C9BBE90017805538D
:1009E00097F7800BBE90026803020B314397087E95
:1009F000A0C8BE9001780A7CBA147CAB68032000C2
:100A0000F67E7B807CB830E75969370003692700A0
:100A1000012F112F112F117F6174087E14FEBB7EF0
:100A200004007E7A0BB07E34FEBC7E24007E7A1BEE
:100A30008074097A0BB07D7C0A7E7A1BF0740A7A86
:100A40000BB07D7C7A1BF0740B7A0BB07D7D0A7E37
:100A50007A1BF074087A0BB07D1D7A1B307EF00192
:100A6000804369D7000369C7000174052F661478B5
:100A7000FB74087E14FEBB7E04007E7A0BB07E7B86
:100A8000807E34FEBC7E24007E7A1B8074097A0B43
:100A9000B07D5D0A5A7A1BB0740A7A0BB07D1D7A5C
:100AA0001B307EF0036CAA8037BEA00850607C8F9C
:100AB0000BF07CB854030A3B2E3400087CB77E341C
:100AC000FEBB7E24007E7A1BB00A3A2D3F7D2E2984
:100AD000B100057E34FEBC7E24007E7A1BB00BA0E4
:100AE0007E7BB0540FBCBA38C080237CAF0BF07C47
:100AF000BA54030A3B2E3400087C877E34FEBB7E4A
:100B000024007E7A1B80E47E34FEBC7A1BB07CBF5E
:100B1000540378D774017E34FEBB7E24007E7A1B9A
:100B2000B074047E34FEBC7A1BB0BE90017802D251
:100B300000DA3B2243970253A2CF5397F7E47E1487
:100B4000FEBB7E04007E7A0BB07E34FEBC7E2400A9
:100B50007E7E1BB044047A1BB0E47A0BB07E1BB0DF
:100B600054FD7A1BB0E47A0BB07E1BB054FE7A1BA6
:100B7000B074067A0BB07E1BB0543F7A1BB074067B
:100B80007A0BB07E1BB054C07A1BB074077A0BB0DE
:100B90007E1BB054F044087A1BB074077A0BB07E09
:100BA0001BB0548F44107A1BB074077A0BB07E1BB5
:100BB000B0547F7A1BB074107A0BB0E47A1BB07417
:100BC000117A0BB0E47A1BB074127A0BB0E47A1B82
:100BD000B074137A0BB0E47A1BB074147A0BB0E4DF
:100BE0007A1BB074157A0BB0E47A1BB074167A0BCA
:100BF000B0E47A1BB074177A0BB0E47A1BB07403BC
:100C00007A0BB074FF7A1BB074047A0BB07E1BB001
:100C100044407A1BB074047A0BB07E1BB044207A37
:100C20001BB074047A0BB07E1BB044107A1BB074F6
:100C3000047A0BB07E1BB044087A1BB074047A0BA4
:100C4000B07E1BB044047A1BB074047A0BB07E1BD8
:100C5000B044027A1BB074047A0BB07E1BB044011E
:100C60007A1BB053F1FEE5F154F74408F5F143F176
:100C700002C200C201E47A0BB07E1BB054FB7A1BA7
:100C8000B02243C1107E17006CBE14032018177EDB
:100C90002400A07D311209A2BE2400001804D2A0B5
:100CA0008006C2A08002C2A0BE1403E808066D330D
:100CB0007A37006C7E37006C0B347A37006C120088
:100CC000E07A370057120F9F7F517A1F00597E2715
:100CD0000057E41203106DDD7EC447807F061202C8
:100CE000447EF4F5C37EE440C87F071201A47A1F56
:100CF00000747F157CB412030B7F061202447F0739
:100D00001201A47A1F005180137E14F5C37E0440A3
:100D1000C87E1F00741200E97A1F00747E14F5C3A8
:100D20007E0440487E7F00747F171202C538DA6D5A
:100D3000BB7EA442C87F177F051201A41203487D21
:100D4000E37A3700557E6F00517F167F051201A4AC
:100D50001203487DF37A37006E7E0F00787F1612FB
:100D600000E97E1450007E0447C31201A412034818
:100D70007A37006A7A6F007874A57AB3002174B567
:100D80007AB300287D3E7A7300220A367A730023F4
:100D90007D3F7A7300247E2401001209A27A730039
:100DA000257E37006A7A7300260A367A7300277424
:100DB000017E1800D47E080021020EEA74017E3400
:100DC000FE0B7E24007E7A1BB0740A7E14FE017E28
:100DD00004007E7A0BB07E34FDEC7E1BB0F59F7E66
:100DE00034FDF77E1BB0F5A6E59D54FC4402F59D4D
:100DF0007E34FE007E1BB054FC7A1BB07E1BB054C8
:100E0000F37A1BB074017A0BB07E1BB054BF7A1B0F
:100E1000B02243BA8075E90053EAF875F518759465
:100E20000075930075920075910075960075950098
:100E300075B20075B10075B40075B30075CA007560
:100E4000C90075CC0075CB0075E20075E100120099
:100E50000E120068120DBC120F26120003120B3482
:100E600012000AD2AF22CA7BCA59CA1BCA197E34E1
:100E7000FEBB7E24007E7E1BA07E31975397F774C5
:100E8000037A1BB07EF4FEBC7EE4007E7E7B207A7B
:100E90001BB07A7B207CB230E302D2017A31977AA0
:100EA0001BA0DA19DA1BDA59DA7B327584017E4429
:100EB000041FE47A49B01B4478F97EF8007B7E0475
:100EC00000FF7E140FD20B0A405D44681A692000AF
:100ED000020B0E0B44800A7E0BB07A29B00B240B58
:100EE0000C1B4478F280DF020FB27CAB7EB3005D56
:100EF00054F044087AB3005D54BF7AB3005D547F68
:100F00007AB3005D7A1F005E6D337F702DF37E7BB8
:100F1000B019B300620B34BE34000708ED7CBA7E12
:100F200008005D0209D45389FB538E7F5389FC531B
:100F300089F7C2B9E5B754FD4402F5B7D2A9E47EFA
:100F400034FEA07E24007E7A1BB0758CF8758A3042
:100F5000D28C22CA7BCA6BCA5BCA4BCA2BCA1BCAB9
:100F60000BC0D0C083C082120C82D082D083D0D07C
:100F7000DA0BDA1BDA2BDA4BDA5BDA6BDA7B326DFF
:100F800033C2A2C2A37E5010C2A500003E3430A4DA
:100F9000034E7001D2A500001B5078ECD2A222CAE9
:100FA0003B1200BE7D636D771200E06D222F13DAD5
:100FB0003B22120FC29F007E340FE27E2400FF020C
:100FC0000385120E12D2A2D2A012000380FE283096
:100FD00029000002006C0000000400700000000006
:040FE00000003000DD
:00000001FF
