:020000040800F2
:100000006009002059020008E52C00089927000823
:10001000E12C0008610300084D32000800000000D8
:100020000000000000000000000000009530000803
:10003000F103000800000000E92C000899300008D6
:1000400073020008730200087302000873020008BC
:1000500073020008730200087302000873020008AC
:10006000730200087302000873020008730200089C
:10007000730200087302000873020008730200088C
:10008000730200087302000873020008730200087C
:10009000730200087302000873020008730200086C
:1000A000730200087302000873020008730200085C
:1000B000B1300008000000000000000073020008DA
:1000C000730200087302000873020008730200083C
:1000D000730200087302000873020008730200082C
:1000E0007302000873020008000000000000000016
:1000F0000000000000000000000000000000000000
:1001000000000000730200080000000073020008F5
:100110000000000000000000BD300008C9300008E9
:1001200073020008730200087302000873020008DB
:100130007302000800000000000000000000000042
:10014000730200089D2700087302000800000000E9
:1001500073020008730200087302000873020008AB
:100160007302000873020008730200080000000018
:100170007302000873020008000000000000000085
:1001800073020008730200087302000800F002F80E
:1001900000F052F814A696E8000CB244B344DA45D5
:1001A00001D100F049F8BAE80F000FA696E8300038
:1001B000A5EB040504EB0607AAEB0704A7F101076A
:1001C0004FEA15154FEA3414A4F10104AC4201D3EF
:1001D00000F032F813F0010F18BFFB1A43F00103CF
:1001E00000F001F8DBE71847203F0000403F000027
:1001F000103A24BF78C878C1FAD8520724BF30C853
:1002000030C144BF04680C607047000070470000B4
:100210000023002400250026103A28BF78C1FBD80F
:10022000520728BF30C148BF0B6070471FB503F0AD
:1002300038FF1FBD10B510BD00F05CF81146FFF788
:10024000F5FF03F049FA00F07AF803B4FFF7F2FF84
:1002500003BC00F07DF800000948804709480047CA
:10026000FEE7FEE7FEE7FEE7FEE7FEE7FEE7FEE766
:10027000FEE7FEE704480549054A064B70470000C3
:100280009D3000088D0100086003002060090020F7
:1002900060050020600500204FF0000200B5134605
:1002A00094469646203922BFA0E80C50A0E80C5096
:1002B000B1F12001BFF4F7AF090728BFA0E80C5047
:1002C00048BF0CC05DF804EB890028BF40F8042B40
:1002D00008BF704748BF20F8022B11F0804F18BFAD
:1002E00000F8012B7047704770477047004870470F
:1002F000480000207546FFF7F9FFAE460500694645
:10030000534620F00700854618B020B5FFF7B2FF2E
:10031000BDE820404FF000064FF000074FF0000806
:100320004FF0000BAC46ACE8C009ACE8C009ACE843
:10033000C009ACE8C00921F007018D46704710B52F
:100340000446AFF300802046BDE81040FFF77DBFB4
:1003500001491820ABBEFEE72600020070470000EE
:10036000FEE70000F0B58BB00446006846F200429C
:10037000C4F2000290422DD140F22410C2F20000DB
:1003800004608162002510260E2701A92046CDE9D0
:1003900006550895CDE901550395CDE90465CDE9EC
:1003A000095700F097F8002818BF00F023F8012043
:1003B000CDE9050001A92046CDE90755CDE9015554
:1003C000CDE90356CDE9095700F084F8002818BF9D
:1003D00000F010F8204600F0A7F92046022100F0B6
:1003E0000FF82046102100F00BF80BB0F0BD000014
:1003F00070470000EFF3108072B600BFFEE7000008
:1004000090F82020013A012A08D8006800F114026F
:100410000020136819431160704700BF00F12402E7
:1004200001204FF4802113681943116070470000C8
:1004300010B590F820E0D0F800C0AEF1010EBEF18A
:10044000010FDCF808E011D81EF0E05F18D0CEF301
:1004500001640120A04018608B68DBB1D1F804E092
:10046000C86840EACE0040EA030E17E000F124031A
:1004700001204FF480211A681143196010BD00BF9C
:1004800000F1240301204FF400111A681143196090
:1004900010BD00BF0868CB6843EA405E0CF5C07031
:1004A00000EB0413240140F804E00C69184640F8FE
:1004B000044F097D012903D1016841F48071016075
:1004C00050680121D8601068986000201A681143B4
:1004D000196010BD90F82020013A012A2AD8B0B541
:1004E00000680123D0F8002242F00102C0F8002287
:1004F000D1F814E0CC690EF01F0203FA02F2D0F832
:100500001C326FEA020C9343012CC0F81C3217D046
:100510006CBBD0F80C3203EA0C03C0F80C32CB6889
:100520008C8844EA034300EBCE04C4F840320B4607
:1005300015E000BF416A41F480214162012070470B
:10054000D0F80C321343C0F80C320B688C8844EAA4
:10055000034300EBCE04C4F8403201F10C038D6874
:100560001B8800EBCE0443EA0543C4F84432D0F8BC
:1005700004328C6943EA0205D1F810E0096A002CC4
:1005800008BF03EA0C05C0F80452D0F81432BEF1DB
:10059000000F43EA020408BF03EA0C040129C0F873
:1005A000144204D1D0F81C121143C0F81C12D0F828
:1005B000001221F00101C0F800120020B0BD0000BF
:1005C000002804BF01207047B0B5044690F8200011
:1005D00010B9204600F06EF82068016841F0010172
:1005E000016000F0B1F9054620684168C90705D1EE
:1005F00000F0AAF9401B0B28F6D310E0016821F0A7
:100600000201016000F0A0F9054600BF20684168C2
:1006100089070DD500F098F9401B0B28F6D3606AC6
:10062000052140F400306062012084F82010B0BD44
:10063000217E0268012922F0800208BF8032026018
:10064000617E0268012922F0400208BF4032026048
:10065000A17E0268012922F0200208BF2032026038
:10066000E17E0268012922F0100218BF10320260F8
:10067000217F0268012922F0080208BF08320260C7
:10068000617F0268012922F0040208BF043202607F
:10069000D4E901C2D4E9033561691A432A431143FD
:1006A000ACF101021143C16100200121606284F8B4
:1006B0002010B0BD80B586B0006846F20042C4F29A
:1006C000000200219042CDE90411CDE9021101910F
:1006D00002D006B080BD00BF41F24C00C4F202005F
:1006E000C26842F00072C260C26802F000720092FA
:1006F000009A026842F001020260006800F0010006
:10070000009000984FF4C05001900220CDE9020102
:10071000032004900920059001A94FF0904000F0BB
:1007200031F806B080BD0000B0B5044690F8200056
:1007300001281DD1022084F820002068016821F0E2
:100740000101016000F000F9054600BF2068406823
:10075000C00713D000F0F8F8401B0B28F6D3606AEE
:1007600040F400306062052084F820000120B0BD14
:10077000606A40F4002060620120B0BD0020606229
:10078000B0BD00002DE9F04F83B00E68002E00F0E0
:10079000CF8000F1200241F2000C009200F13847B6
:1007A000C4F6000C07224FEAB725604508BF0422B3
:1007B000042D38BF4FEAB722002500274FF000086C
:1007C00001920AE00E6808F1010836FA08F207F112
:1007D000020705F1040500F0AB80012202FA08FED1
:1007E00016EA0E09EED0D1F804C003220CF0030B78
:1007F000ABF1010602FA07F4012E6FEA040A11D8E0
:100800008468CE6804EA0A04BE40344384604468C5
:1008100024EA0E06CCF3001404FA08F426434660DA
:1008200006E000BFBBF1030F02D14FF0030B21E044
:10083000C6688C6806EA0A06BC402643BBF1020F74
:10084000C66017D16FF00302009B02EA580605F05C
:100850001C020F2453F806C004FA02FE0C692CEAAD
:100860000E0C04FA02F242EA0C029A51D1F804C0CA
:100870000CF0030B02680BFA07F302EA0A021A43B0
:100880001CF4403F02609DD041F26003C4F20203B9
:100890001A6840F2004E42F001021A601A68C4F26F
:1008A000010E02F001020292029A28F003024FF6B2
:1008B000084C7244CFF6FF7C52F80C3005F00C0661
:1008C0000F24B440A343019C04FA06F6334342F8D4
:1008D0000C30DEF808204B6842EA090640F20C4C66
:1008E000DC0258BF22EA0906CEF80860C4F2010C07
:1008F000DCF800209C0242EA090658BF22EA0906F9
:10090000CCF80060DEF804209C0342EA090658BFD8
:1009100022EA0906CEF80460DEF80020DB0342EA92
:10092000090658BF22EA0906CEF800604AE700BF70
:1009300003B000F000B830BCBDE8C08F1823002A17
:1009400008BF2823C150704740F25830C2F200005F
:100950000068704740F2000040F25831C2F20000D7
:10096000C2F2000100780A68104408607047000075
:1009700080B5032000F046FA0F2000F009F80028A7
:100980001CBF012080BD00F0E5F9002080BD000003
:10099000B0B540F20005C2F200052978F1B1044675
:1009A00040F23800C2F200004FF47A720068B2FBE5
:1009B000F1F1B0FBF1F001F017FB01460F2C4FF005
:1009C00001000AD8002918BFB0BD4FF0FF30214602
:1009D000002200F0EBF900206C60B0BD0120B0BD3A
:1009E000704700007047000070470000704700002B
:1009F000704700007047000010B5016804460868A1
:100A0000C0071CBF88685FEAC07031D108688007E2
:100A100044BF88685FEA807032D40868400744BFEA
:100A200088685FEA407033D40868000744BF88686C
:100A30005FEA007034D40868C00644BF88685FEA83
:100A4000C06035D40868800644BF88685FEA80606B
:100A500036D40868400646BF88685FEA406010BD2B
:100A6000402220464A60BDE81040FFF7C1BF00BFEA
:100A7000012048602046FFF7B7FF2168C6E700BFA6
:100A8000022048602046FFF7ABFF2168C5E700BFA2
:100A900004204860204600F05BF92168C4E700BFED
:100AA000082048602046FFF7A1FF2168C3E700BF88
:100AB000102048602046FFF795FF2168C2E700BF7D
:100AC000202048602046FFF795FF2168C1E700001D
:100AD000002804BF012070472DE9F04190F836103E
:100AE00031B9002180F83510044600F067F820463F
:100AF000022180F83610D0E900C4D0F828E0DCF8F4
:100B00000C10012C04D0BEF5000F03D14FF4000EE1
:100B100021F01E0143698268D0E908564FF6FF773D
:100B200041F23E18BB424FF2FE17CFF6197818BFBC
:100B300001EA0801CFF619772A43394032431143BD
:100B400041EA0E0134B3012C44EA010402D0BEF59F
:100B5000000F04D1D0E90312214341EA02044FF609
:100B6000FF718B4204D0D0E90612114319430C43A4
:100B700047F60041CCF80C40C4F20001C26A8C4533
:100B800012D0CCF82020012180F836100020BDE8DA
:100B9000F08100BF0269C469224342EA0104BEF544
:100BA000000FD7D0DBE700BF036B1A430A620121B5
:100BB00080F836100020BDE8F081000010B598B034
:100BC000044601A804305821FFF766FB206847F669
:100BD0000041C4F20001884202D018B010BD00BF2D
:100BE0004FF4007001904FF48020109001A800F0A5
:100BF00067F9002818BFFFF7FDFB41F25800C4F267
:100C000002000168002241F00041016000680021FB
:100C100000F0004000900098412000F0C7F841200B
:100C200000F0B2F818B010BD10B5022380F83630CD
:100C3000D0F800E040F2204C47F60044C4F2010C2A
:100C4000C4F20004A645DCF8004008BF012323439A
:100C5000CCF80030DEF80C30002443F40023CEF84A
:100C60000C30DEF8103043F00103CEF810301023C2
:100C7000CEF80430CEF8181040F23801C2F200016C
:100C8000096841F25973CDF2B713A1FB0313990B15
:100C90004FF47A735943C1F1040C6146DEF8003019
:100CA000DB0613D4DEF80030DB065CBFDEF8003074
:100CB0005FEAC3630AD4002908BF0324DEF80030CA
:100CC00021B113F0100301F10401E7D0E1B20329CF
:100CD0002AD00821CEF80410CEF814200022DEF825
:100CE0000010090716D4DEF8001009075CBFDEF813
:100CF00000105FEA01710DD4BCF1000F08BF0322A0
:100D0000DEF80010BCF1000F04D011F008010CF166
:100D1000040CE4D0D1B2032906D0044601F044FD0E
:100D200094F83600032801D1032010BD20688168A3
:100D300041F001018160016941F001010161016936
:100D400041F004010161012084F83600002010BD4B
:100D50007047000082B041F25800C4F2020081687E
:100D600041F001018160816801F001010191019967
:100D7000016841F080510160006800F080500090EF
:100D8000009802B070470000002848BF704700F08C
:100D90001F01012202FA01F11C2202EAD0004EF2E8
:100DA0000012CEF2000281507047000010B54EF6DE
:100DB0000C5CCEF2000CDCF80030C3F3022E8EF097
:100DC0000704042C28BF0424BEF103034FF0FF3EA8
:100DD0000EFA04F438BF0023A14399400EFA03F33E
:100DE0009A43114300F00F0200F160430901043AF5
:100DF00003F564436244002848BF02F10C031970F4
:100E000010BD00004EF60C51CEF200010A684FF6FC
:100E1000FF031A4060F30A2242F0806040F0FD7048
:100E20000860704747F20001C4F200010A68B0F59B
:100E3000007F02F4C06031D1B0F5007F2CD008688B
:100E4000012262F34A20086040F23800C2F200003A
:100E50000068322250434DF68362C4F21B32A0FB7D
:100E60000202900C4A69520511D5421C0FD04A6902
:100E700052050CD558B14A69520508D5012806D04B
:100E80004A69520503D50228A0F10400EAD1486955
:100E9000400544BF0320704700207047B0F5806FC5
:100EA000FAD00868022262F34A20086000207047E6
:100EB00047F20000C4F20000006800F4C060704710
:100EC0002DE9F04381B00446407841F288070007DD
:100ED000C4F202071ED5606C80B1B0F5400F14D08B
:100EE000B0F5000F40F0288157F87C0C40F48030BA
:100EF00047F87C0C4FF4000007E000BF201D0021E4
:100F000001F0F4FE814638B9606C396821F4400183
:100F1000084338604FF00009A078800752D557F891
:100F2000300C5FEAC0080BD457F8300C40F080500A
:100F300047F8300C57F8300C00F0805000900098C3
:100F400047F20005C4F20005286840F4807028606C
:100F5000FFF7FAFC064600BF2868C00508D4FFF773
:100F6000F3FC801B0228F7D94FF0030921E000BFF2
:100F7000B9F1000F1DD1B86810F4407011D0A16D07
:100F800088420BD0B868B96820F4407041F48031D1
:100F9000B960B96821F48031B960B860C00740F029
:100FA000D380B868A16D20F4407008434FF0000969
:100FB000B860B8F1000F05D457F8300C20F080501D
:100FC00047F8300C2168C80712D1880718D44807A1
:100FD0001ED4880624D488052AD4480530D448066F
:100FE00036D408063CD4C80542D4080348D459E096
:100FF0003868226A20F00300104338608807E6D57D
:101000003868626A20F00C00104338604807E0D569
:101010003868A26A20F03000104338608806DAD5BC
:101020003868E26A20F44060104338608805D4D5FF
:101030003868E26B20F44020104338604805CED574
:101040003868226C20F44010104338604806C8D538
:101050003868226B20F44050104338600806C2D52F
:101060003868626B20F4404010433860C805BCD536
:101070003868A26B20F4403010433860080311D563
:101080003A68A06C22F040620243B0F1806F3A608F
:101090001ED0B0F1006F05D157F87C0C40F48010E1
:1010A00047F87C0C480327D53A68E06C22F0406290
:1010B0000243B0F1806F3A6016D0B0F1006F1BD1DF
:1010C00057F87C0C40F4801047F87C0C14E000BF0B
:1010D000201D012101F00AFE2168002818BF814669
:1010E0004803E1D408E000BF201D012101F0FEFD0E
:1010F0002168002818BF8146480410D53868226D41
:1011000020F040501043B2F1805F386007D1201DBD
:10111000022101F0EBFD2168002818BF8146080478
:1011200005D53868616D20F0804008433860484636
:1011300001B0BDE8F08300BF4FF00109A07880073F
:101140003FF5EDAE3EE700BFFFF7FEFB064641F27E
:1011500088354FF0030900BFB86880073FF521AF1D
:10116000FFF7F2FB801BA842F6D922E72DE9F043F6
:1011700081B0002800F08C8042F20009C4F202091C
:101180000446D9F8000000F0070081420CD9D9F8D4
:10119000000020F007000843C9F80000D9F800005B
:1011A00000F00700884273D1206841F2080610F071
:1011B0000202C4F202060AD0A368376807F0F007FB
:1011C000BB4204D9376827F0F0073B433360C307BD
:1011D00034D0606856F8082C50B1022804D0032897
:1011E0000AD192010AD453E0920307D450E000BF21
:1011F000920703D44CE000BF520549D588463168B8
:1012000021F0030108433060FFF79EFB054641F2E1
:10121000883700BF3068616800F00C00B0EB810FC8
:1012200008D0FFF791FB401BB842F3D9032001B06F
:10123000BDE8F0832068414600F0020252B1A26886
:10124000336803F0F0039A4204D2336823F0F003CA
:101250001A433260D9F8002002F0070291420CD202
:10126000D9F8002022F007020A43C9F80020D9F873
:10127000002002F007028A420AD141070CD400077D
:1012800012D43068716810F00C0019D11EE000BF54
:10129000012001B0BDE8F0833168E26821F4E0612B
:1012A000114331600007ECD53068216920F46050AB
:1012B00040EAC10030603068716810F00C0005D061
:1012C0000C282BD101F00301012927D156F8081C65
:1012D000042211F008016FF0070108BF8C2171583A
:1012E00008BF0822D14044F2D80201F00F01C0F635
:1012F000000252F8211000280A4618BF00220C28CC
:1013000038D1706800F00300022811D0032804BF10
:1013100041F20021C0F27A010EE000BF04281FD084
:10132000082823D141F20022C0F27A0222E000BF55
:1013300042F20041C0F2F40170687268C0F302101A
:10134000C2F30622514372680130B1FBF0F0C2F3E0
:101350004161022202EB4101B0FBF1F20AE000BF61
:1013600042F20042C0F2F40204E000BF0022002179
:101370000C28C6D0306844F2C601C0F30310C0F692
:101380000001085C00F01F0022FA00F140F20400A6
:10139000C2F2000040F238020068C2F2000211609E
:1013A00001B0BDE8F043FFF7F3BA0000002804BF26
:1013B000012070472DE9F04383B041F20006044656
:1013C000C4F20206B068F168227800F00C09D00679
:1013D00001F003081ED42078C00700F08880B9F11E
:1013E000080F00F07D80B9F10C0F08BFB8F1030FB2
:1013F00076D061683068B1F5803F07D0B1F5A02F95
:1014000040F0528240F480203060306840F48030F8
:10141000306053E2B9F1000F1CD0B9F10C0F08BFD6
:10142000B8F1010F16D0A1693068002900F0A08141
:1014300040F001003060FFF787FA0546306880070A
:1014400000F1A881FFF780FA401B02284FF003004B
:10145000F4D960E33068800703D5A069002800F064
:101460000F83256A3068000700F14A81D6F894009E
:10147000000900F0F000854200F248813068B9F1BF
:10148000000F40F008003060306820F0F00040EAC3
:10149000050030607068E16920F47F4040EA012077
:1014A000706040F0B882B06DC00000F15582B06D40
:1014B00040F08050B065B06D00F08050029002980E
:1014C000FFF7F6FCB16D21F08051B165B0F5007FFA
:1014D00000F04882802D40F2858203208DE200BF1B
:1014E0003068800303D56068002800F0C982207846
:1014F00080072DD5B9F1040F1CD0B9F10C0F08BF2E
:10150000B8F1020F16D0E1683068002900F0E681DA
:1015100040F480703060FFF717FA054630684005E8
:101520000FD4FFF711FA401B02284FF00300F5D942
:10153000F1E200BF3068400503D5E068002800F004
:101540009F827068216920F0F85040EA0160706065
:101550002078000760D42078400779D4207880066E
:1015600000F1B280A06A002800F01683022840F043
:101570002381F068E16A00F003028A4240F034817E
:10158000226B6FF00F0300F0700103EB0212914227
:1015900040F02A81616B00F4FE42B2EB012F40F073
:1015A0002381A16B00F07842B2EBC16F40F01C8147
:1015B000E26B0023CFF6E07303EA025200F4C001AD
:1015C000A2F50012914240F00F81216C4FF07E4253
:1015D00002EA016100F0C06001F17E41884240F002
:1015E00003813068800100F1D782306840F080705C
:1015F0003060F06840F08070F060FFF7A5F90446B5
:101600003068800100F1C882FFF79EF9001B0228B4
:101610004FF00300F4D97EE26169D6F89400002906
:1016200000F0908040F00100C6F89400FFF78CF9BC
:10163000054600BFD6F8940080078CD4FFF784F9E4
:10164000401B0228F6D9032003B0BDE8F08300BF99
:10165000B06D5FEAC00808D4B06D40F08050B0654E
:10166000B06D00F080500090009847F20007C4F27F
:1016700000073868C00513D4386840F480703860BB
:10168000FFF762F9054600BF3868C00508D4FFF7C8
:101690005BF9401B02284FF00300F5D93BE200BF85
:1016A000A168D6F89000012908D0052940F0DC8017
:1016B00040F00400C6F89000D6F8900040F0010019
:1016C000C6F89000DCE000BF616AD6F898000029F7
:1016D00000F0B48040F00100C6F89800FFF734F93C
:1016E000054600BFD6F8980080073FF53BAFFFF7EF
:1016F0002BF9401B02284FF00300F3D90BE200BF87
:10170000306800F0F00085427FF6B8AEB06DC000E2
:1017100000F18680B06D40F08050B065B06D00F093
:10172000805001900198FFF7C3FBB16D21F080510B
:10173000B165B0F5007F79D0802D40F2E1800320C3
:10174000E9E000BF20F00100C6F89400FFF7FCF8C4
:10175000054600BFD6F8940080077FF5FCAEFFF782
:10176000F3F8401B02284FF00300F3D9D3E100BF88
:1017700020F001003060FFF7E7F805463068800789
:101780007FF529AEFFF7E0F8401B02284FF0030079
:10179000F4D9C0E1306840F0080030603068D4E926
:1017A000071220F0F00010433060706820F47F4092
:1017B00040EA012070600EE6B9F10C0F00F0608184
:1017C000306820F080703060FFF7BEF8044600BF3C
:1017D0003068800140F1EA80FFF7B6F8001B02286C
:1017E0004FF00300F4D996E1B9F10C0F00F04881F5
:1017F0003068400100F14481306820F08070306032
:10180000FFF7A2F8054600BF3068800140F18681ED
:10181000FFF79AF8401B02284FF00300F4D97AE151
:10182000FFF746FBB0F5007F7FF486AF812D71D3C3
:101830000120A02D88BF02206DE000BF20F0010034
:10184000C6F89800FFF780F8054600BFD6F8980064
:1018500080077FF587AEFFF777F8401B02284FF02F
:101860000300F3D957E100BF20F00100C6F8900053
:10187000D6F89000002920F00400C6F8900079D036
:10188000FFF762F8054641F2883700BFD6F89000AE
:10189000800700F18180FFF757F8401BB842F5D967
:1018A000032003B0BDE8F08320F48030306030685E
:1018B000002920F48020306000F08480FFF744F895
:1018C000054600BF306880033FF511AEFFF73CF8D6
:1018D000401B64284FF00300F4D91CE120F4807011
:1018E0003060FFF731F80546306840057FF530AECF
:1018F000FFF72AF8401B02284FF00300F4D90AE151
:10190000A5F17000B0FA80F04009802D08BF0220D8
:1019100001E000BF002042F20001C4F202010A68A7
:1019200022F0070202440A60096801F007018142BF
:1019300040F0A680306840F0080030603068D4E99C
:10194000071220F0F00010433060706820F47F40F0
:1019500040EA012070605EE0FFF7AAFAB0F5007F70
:101960007FF4B8AD812D47D30120A02D88BF022080
:1019700043E000BFFEF7E8FF054641F2883700BFAD
:10198000D6F89000800707D5FEF7DEFF401BB8426F
:101990004FF00300F4D9BEE0B8F1000F3FF5DEAD23
:1019A000B06D20F08050B065D8E500BFF0684FF60C
:1019B000FC71CFF6EE610840F060002003B0BDE896
:1019C000F08300BFFEF7C0FF054600BF306880030C
:1019D0007FF58DADFEF7B8FF401B64284FF0030084
:1019E000F4D998E0A5F17000B0FA80F04009802D9C
:1019F00008BF022001E000BF002042F20001C4F253
:101A000002010A6822F0070202440A60096801F034
:101A10000701814234D1B068F16810F00C0005D0A4
:101A20000C2831D101F0030101292DD1314651F8A3
:101A3000942B12F00802324608BF0A464FF0040108
:101A4000126808BF082122FA01F144F2D80201F01D
:101A50000F01C0F6000252F8211000280A4618BFF4
:101A600000220C283CD1F06800F00300022815D0B9
:101A7000032804BF41F20021C0F27A0112E000BF46
:101A8000012003B0BDE8F08304281FD0082823D12B
:101A900041F20022C0F27A0222E000BF42F200418D
:101AA000C0F2F401F068F268C0F30210C2F306223B
:101AB0005143F2680130B1FBF0F0C2F34161022200
:101AC00002EB4101B0FBF1F20AE000BF42F200423A
:101AD000C0F2F40204E000BF002200210C28C2D0B2
:101AE000B06844F2C601C0F30310C0F60001085C00
:101AF00000F01F0022FA00F140F20400C2F20000E0
:101B000040F238020068C2F200021160FEF740FFA6
:101B100000283FF460AC03B0BDE8F083F06848F201
:101B20008C01C0F29D1104F12C0700EA010C8ECF4C
:101B30006FF00F00D4E90F5400EB02100022CFF633
:101B4000E07241EA0C0102EA05520843A2F50012D4
:101B50004FF07E4540EA032005EA0465104305F195
:101B60007E4540EAC7602843F060306840F08070EE
:101B70003060F06840F08070F060FEF7E5FE0446EB
:101B80003068800108D4FEF7DFFE001B02284FF00A
:101B90000300F5D9BFE700BF002003B0BDE8F08324
:101BA000002804BF01207047416A19B1002101617A
:101BB000142104E04168B1F5827F02D01C2100228B
:101BC0004250B0B50025856290F85D1029B980F8C3
:101BD0005C50044600F052F82046022180F85D1067
:101BE0000168D0F80CE00B68BEF5E06F23F040030D
:101BF0000B6098BF01254EF40063B3F5706F4FEA98
:101C0000053C1CBF00258562D0E90154D0E90432AF
:101C100005F4827504F404442C4403F002032344C5
:101C2000846902F00102C5691A4404F400731A447D
:101C300005F03803056A1A4405F08003856A1A44E2
:101C400005F400531A430A600422436A0EF47065D7
:101C500002EA1442446B45EA0C0503F010032A43E0
:101C600004F008041A4322434A600021012201665D
:101C700080F85D20BDE8B0400846704780B586B06A
:101C8000006843F20002C4F2010200219042CDE953
:101C90000411CDE90211019102D006B080BD00BF50
:101CA00041F24C00C4F20200426942F480524261A7
:101CB000426902F480520092009A026842F00102E6
:101CC0000260006800F0010000900098E0200190A0
:101CD0000220CDE90201032004900520059001A90E
:101CE0004FF09040FEF74EFD06B080BD2DE9F04369
:101CF00081B01E4615460F460446FEF725FE94F8B1
:101D00005D108146012909D1002F4FF0010018BF55
:101D1000002D0FD101B0BDE8F08300BF6068B0F5C1
:101D2000827F0DD104294FF00200F3D1A168002970
:101D3000EAD0EFE7002EEDD094F85C00012803D143
:101D4000022001B0BDE8F083012084F85C0094F823
:101D50005D0004281CBF052084F85D00002020667B
:101D60002564A4F84660A4F84460A763E687C4E944
:101D700013002068A687E1684268B1F5E06F22F49D
:101D80008052134698BF03F58053012E88BF134637
:101D900043600268520603D4026842F040020260C7
:101DA0006268731EB2FA82F2B3FA83F3DDF8208020
:101DB00052095B09B1F5E06F43EA02016CD931B118
:101DC00037F8021BC160A763E08F0138E087012567
:101DD00018F1010035D101E0FEF7B6FDE08F20B922
:101DE000B4F84600002800F0CD802068816889079B
:101DF0000CD5E18F51B1012D08D1A16B002531F82F
:101E0000022BC260A163E18F0139E1878168C907B4
:101E1000E2D0B4F846100029DED0C068216C01255C
:101E200021F8020B2164B4F846000138A4F84600FA
:101E3000D2E700BFFEF788FDA0EB0900404580F027
:101E40009780E08F20B9B4F84600002800F09A800F
:101E50002068816889070CD5E18F51B1012D08D127
:101E6000A16B002531F8022BC260A163E18F01391B
:101E7000E1878168C907DDD0B4F846100029D9D0C0
:101E8000C068216C012521F8020B2164B4F84600DA
:101E90000138A4F84600CDE789B1E18F02294FF659
:101EA000FE7103D337F8022BC26004E03A780131A7
:101EB0000273A06B471CA763E08F0844E0870126EC
:101EC00008F10105E08F18B9B4F84600002859D090
:101ED00020688168890719D5E18FB9B1012E15D124
:101EE000E28FA16B022A07D331F8022BC260A163F3
:101EF000E18F023908E000BF09780173A16B206807
:101F00000131A163E18F01390026E1878168C907AA
:101F100026D0B4F8461019B3B4F84610022913D3EA
:101F2000C168226C22F8021B2264B4F84610023900
:101F3000A4F84610B4F84610012910D8416841F4BD
:101F4000805141600BE000BF007B216C0870206C69
:101F500001302064B4F846000138A4F84600012698
:101F6000FEF7F2FC002DADD0A0EB09004045A9D34F
:101F7000012084F85D00002084F85C00032001B09B
:101F8000BDE8F08320464FF4C05142464B4600F076
:101F900051FF68B9204641464A4601F00FF838B96A
:101FA00020464FF4C06142464B4600F043FF68B103
:101FB000206E40F02000206620202066002084F85B
:101FC0005C00012001B0BDE8F08300BF012084F86F
:101FD0005D00002084F85C00206E002818BF0120FE
:101FE00001B0BDE8F0830000411E0020B0EB116F8E
:101FF0001CBF012070474EF21002CEF20002516069
:102000004EF62351CEF20001F0230B7007219060B1
:102010001160704770470000704700007047000073
:1020200090F83C20012A4FF002022DD010B580F824
:102030003D20026842F6004C5368D2F808E0C4F232
:10204000010C624503D14C6823F4700323430C68F0
:1020500023F070032343B2F1804F536007D044F262
:102060000003C4F201039A4201D0624504D1896899
:102070002EF08003194391600121002280F83D1069
:1020800080F83C20BDE8104010467047002804BF8F
:1020900001207047B0B590F83D1031B9002180F8AB
:1020A0003C10044600F068F82046022180F83D10FC
:1020B000016842F6004E0A68C4F2010E714502D072
:1020C000B1F1804F03D1846822F07002224343F6BD
:1020D000FF74C4F2010444F2004CA142C4F2010CAA
:1020E00006DCB1F1804F0BD0714509D00CE000BF88
:1020F000614505D044F20004C4F20104A14203D1B9
:10210000046922F4407222434368C56884697145BA
:10211000CD628B6218BF614526D143690B630B68A2
:1021200022F0800243F0040322430B6001234B6141
:102130000A6080F8483080F83E3080F83F3080F800
:10214000403080F8413080F8423080F8433080F8E9
:10215000443080F8453080F8463080F8473080F8C9
:102160003D300020B0BD00BF44F20003C4F20103C3
:102170009942D2D0D3E7000080B582B0006841F226
:10218000FF31C4F20001884220DCB0F1804F39D029
:1021900041F20001C4F20001884230D141F25800FE
:1021A000C4F202000168002241F0100101600068E1
:1021B000002100F01000019001983620FEF7F6FD96
:1021C000362002B0BDE88040FEF7DEBD41F200419E
:1021D000C4F2000188422DD044F20041C4F2010152
:1021E00088420CD141F25800C4F20200816841F4E7
:1021F00000318160806800F400300190019802B0E5
:1022000080BD00BF41F25800C4F202000168002204
:1022100041F0010101600068002100F0010001901F
:1022200001981C20FEF7C2FD1C2002B0BDE88040D2
:10223000FEF7AABD41F25800C4F202000168002274
:1022400041F0200101600068002100F020000190B1
:1022500001983720FEF7AAFD372002B0BDE8804084
:10226000FEF792BD90F83D10012925D1022180F89A
:102270003D100168B1F1804F0BD044F20000C4F270
:102280000100814205D042F60040C4F201008142C3
:102290000CD188680722C0F201020240062A4FF0E2
:1022A00000000AD0B2F5803F08BF7047086840F0D0
:1022B00001000860002070470120704790F83D1031
:1022C000012929D1022180F83D100168C868B1F1C7
:1022D000804F40F00100C8600BD044F20000C4F20F
:1022E0000100814205D042F60040C4F20100814263
:1022F0000CD188680722C0F201020240062A4FF082
:1023000000000AD0B2F5803F08BF7047086840F06F
:1023100001000860002070470120704790F83C20C1
:10232000012A4FF0020200F0878010B580F83D20AE
:10233000D0F800E08822DEF80830CFF6FE721A40AE
:10234000CEF808200B684F2B40DC1F2B5EDD202BC6
:1023500060D0302B5ED0402B40F0EC80D1F804C030
:10236000C968DEF82030DEF8202042F60044C4F2CE
:102370000104A64522F00102CEF820200BD044F241
:102380000042C4F20102964505D044F20002C4F2B4
:102390000102964505D1DEF8202022F00402CEF895
:1023A0002020DEF8182022F0F00242EA011123F08A
:1023B0000A0242EA0C02CEF81810CEF82020DEF80D
:1023C000081041F0470121F030012AE06F2B35DD84
:1023D000B3F5005F00F09A80B3F5805F23D0702BD7
:1023E00040F0A880D1E901C3C968DEF8082043EABB
:1023F0000C0322F47F4243EA01211143CEF8081076
:10240000DEF8081041F077010BE000BF13B1102B8C
:1024100040F09080DEF8081021F07001194341F07F
:102420000701CEF808100022012180F83D1000219C
:1024300080F83C10BDE8104010467047502B2DD05E
:10244000602B77D1D1F804C0C968DEF82030DEF8FF
:10245000202042F60044C4F20104A64522F01002F6
:10246000CEF8202005D1DEF8202022F04002CEF860
:102470002020DEF8182022F4704242EA013123F0D5
:10248000A00242EA0C12CEF81810CEF82020DEF896
:10249000081041F0670121F01001C2E7D1F804C033
:1024A000C968DEF82030DEF8202042F60044C4F28D
:1024B0000104A64522F00102CEF820200BD044F200
:1024C0000042C4F20102964505D044F20002C4F273
:1024D0000102964505D1DEF8202022F00402CEF854
:1024E0002020DEF8182022F0F00242EA011123F049
:1024F0000A0242EA0C02CEF81810CEF82020DEF8CC
:10250000081041F0570121F020018AE7D1E901C309
:10251000C968DEF8082043EA0C0322F47F4243EA4C
:1025200001211143CEF80810DEF8081041F4804173
:1025300077E700BF012277E770470000F0B581B070
:1025400004460068C5680669B10717D515F0020191
:1025500014D06FF0020101610121217780698007A9
:1025600004D02046FFF7E8FF06E000BF204600F059
:102570009BF8204600F09AF800202077700719D5C4
:1025800015F0040016D020686FF0040101610221EB
:102590002177806910F4407F04D02046FFF7CCFFFC
:1025A00006E000BF204600F07FF8204600F07EF8ED
:1025B00000202077300717D515F0080014D02068C8
:1025C0006FF00801016104212177C069800703D001
:1025D0002046FFF7B1FF05E0204600F065F82046F1
:1025E00000F064F800202077F00619D515F01000EF
:1025F00016D020686FF01001016108212177C069B1
:1026000010F4407F04D02046FFF796FF06E000BF9D
:10261000204600F049F8204600F048F800202077D6
:10262000F00718BF15F0010006D020686FF0010117
:102630000161204600F03CF816F4025F05F08007C7
:1026400018BF002F02D1F00509D410E020686FF404
:10265000025101612046FFF7DFFCF00507D537B1D5
:1026600020686FF4807101612046FFF7D3FC70068B
:1026700009D515F0400006D020686FF040010161D7
:10268000204600F055F8B0060CD515F0200009D012
:1026900021686FF0200220460A6101B0BDE8F040D9
:1026A000FFF7BCBC01B0F0BD7047000070470000F0
:1026B000006841F2FF31C4F20001884218DD41F2A6
:1026C0000041C4F20001884222D044F20041C4F229
:1026D0000101884222D042F60041C4F20101884241
:1026E00018BF704740F2B400C2F2000040680047D3
:1026F000B0F1804F14D041F20001C4F200018842D1
:1027000014D140F2B400C2F200004069004700BF9B
:1027100040F2B400C2F20000C0690047FEF71AB9E7
:1027200040F2B400C2F20000C068004770470000E9
:1027300070470000002804BF0120704710B5044610
:1027400000F00CF8E26894E80B0042F080020260AE
:102750002269114319434160002010BD006842F610
:102760000041C4F20001884218BF704781B041F2B5
:102770005800C4F20200016841F400610160006881
:1027800000F400600090009801B070470168C268D2
:1027900000200A6070470000FEE7000040F2781059
:1027A000C2F20000FEF728B92DE9F04FEFF3108CCC
:1027B000012181F31088026849F2004641F288093C
:1027C000C4F2000647F60043C4F20209B242C4F262
:1027D00000031DD09A4237D1D9F80070D2F808E032
:1027E000D2F80CA055699469D2F820B059F8501C61
:1027F00007F4402841F0004149F8501C59F8501C9A
:1028000021F0004149F8501C55EA04012AD1B6E0F4
:10281000D9F80010D2F808E0D2F80CA055699469F4
:10282000D2F820B059F84C7C01F4401847F020074A
:1028300049F84C7C59F84C7C27F0200149F84C1C95
:1028400055EA04010ED19AE0D2F808E0D2F80CA0C3
:1028500055699469D2F820B04FF0000855EA040198
:1028600000F08D809A4205D0B2420AD16FF4401731
:1028700002E000BF6FF44027D9F800103940C9F8D2
:102880000010BDB31769414647F001071761556154
:1028900040F23805C2F200052D6841F25977CDF2B9
:1028A000B717A5FB0757BD0B4FF47A777D43C5F1EA
:1028B0000408002517683F0713D417683F075CBF5B
:1028C00017685FEA07770CD4B8F1000F08BF03253B
:1028D0001768B8F1000F04D017F0080708F10408D2
:1028E000E8D0EDB2032D04BF032580F8365008254B
:1028F0008846556094B3156940F2380145F00105EA
:1029000015619461C2F20001096841F25974CDF277
:10291000B714A1FB0414A10B4FF47A746143C1F105
:10292000040500241168C90610D41168C9065CBFEB
:1029300011685FEAC16109D4002D08BF032417683C
:1029400025B117F0100105F10405EBD0E1B2032920
:1029500004BF032180F83610102050609A4205D041
:10296000B2420CD16FF4401002E000BF6FF440207F
:10297000D9F80010084040EA0800C9F800001069C2
:1029800020F001001061C2F808E0C2F80CA0C2F803
:1029900020B08CF3108800F000B830BCBDE8C08FC8
:1029A00080B540F2501046F20041C2F20000C4F27D
:1029B00000011022002380E80E0000F10C014FF40A
:1029C000803C4FF4801E81E8085083618383FDF7CB
:1029D000F7FD002808BF80BDBDE88040FDF70ABDB7
:1029E0002DE9F04387B0002641F24C000696CDE970
:1029F0000466CDE90266C4F202000168002241F0DB
:102A00000401016001684FF0100901F00401019117
:102A10000199016841F080010160016801F08001C5
:102A200001910199016841F001010160016801F023
:102A3000010101910199016841F002010160016801
:102A400001F0020101910199016841F00801016062
:102A50000068102100F00800019001984FF09040AC
:102A6000FDF76CFF40F20044C4F60004204601214B
:102A700000224FF00108FDF761FF4FF6FF7002AD35
:102A80000290032704F580602946CDE90376FDF71F
:102A900079FE48F20F70CDE902074FF090402946C9
:102AA0000496FDF76FFE4FF090402946CDE902985D
:102AB000CDE90466FDF766FE20462946CDE9028889
:102AC000CDE90466FDF75EFE4FF6FE70CDE9020724
:102AD000204629460496FDF755FE0420CDE902075D
:102AE00004F5006029460496FDF74CFE0820CDE968
:102AF000020704F5C05029460496FDF743FE07B0CF
:102B0000BDE8F08380B540F2781047F60041C2F28C
:102B10000000C4F200010022C0E900124FF6FF716C
:102B200082604161C0E90822C0E90A220263FDF720
:102B3000CFFF002808BF80BDBDE88040FDF75ABC2C
:102B400070B540F2B01043F20001C2F20000C4F2CE
:102B500001014FF4827200234FF4E06C4FF0020E3B
:102B6000012480E80E5000F114014FF40075102686
:102B700070C10721C0E90833C0E90A31C0E90C334C
:102B8000FFF70EF8002808BF70BDBDE87040FDF7E4
:102B900031BC000080B540F2142044F20041C2F282
:102BA0000000C4F2010100224FF6FF73C0E90012D9
:102BB000C0E90223C0E904228261FFF767FA002816
:102BC00008BF80BDBDE88040FDF714BC80B588B06B
:102BD00040F260200021C2F200004FF080424F23FB
:102BE00040F2E73C0791CDE905110291C0E90023CD
:102BF000C0E9021C01618161FFF748FA002818BF93
:102C0000FDF7F8FB4FF48050049040F26020C2F2D0
:102C1000000004A9FFF782FB002818BFFDF7EAFBBC
:102C200000200190039040F26020C2F2000001A950
:102C3000FFF7F6F9002818BFFDF7DCFB08B080BDF0
:102C400010B584B040F2AC2041F200010024C2F281
:102C50000000C4F2000140F2E73302944F2280E802
:102C60001600C3608461FFF711FA002818BFFDF752
:102C7000C1FB40F2AC20C2F2000001A90194039410
:102C8000FFF7CEF9002818BFFDF7B4FB04B010BD64
:102C900010B584B040F2F82041F200410024C2F2A5
:102CA0000000C4F2000140F2E73302944F2280E8B2
:102CB0001600C3608461FFF7E9F9002818BFFDF72B
:102CC00099FB40F2F820C2F2000001A9019403949C
:102CD000FFF7A6F9002818BFFDF78CFB04B010BD64
:102CE000FEE70000FEE7000070470000F0B581B08D
:102CF00041F20005C4F20205EA68920714D0EA68BE
:102D0000036802F003029A424FF0010208D13BB17E
:102D1000EA684368C2F3021201329A422AD00122C1
:102D2000104601B0F0BD00BF0268032A10D0022A8D
:102D300006D0012A07D12B689B0710D403E000BFFF
:102D40002B685B050BD40122104601B0F0BD00BF1B
:102D50002B689B035CBF2B685FEA4333F3D5EB68BA
:102D600047686FF00F0623F0730306EB07173B432A
:102D70001A43EA60064628680F4620F08060286003
:102D8000FDF7E2FD044600BF2868000108D5FDF705
:102D9000DBFD001B0228F7D90322104601B0F0BD6D
:102DA0002969B0683246012F4FEA002008D0BFB928
:102DB00048F2FF03D268C0F2FF731940D2061BE04D
:102DC00048F2FF03CFF6FF1303F1B4631940126911
:102DD0000023CFF6E07303EA0252A2F500120BE0E3
:102DE00048F2FF03CFF6FF13526919404FF07E43BC
:102DF00003EA026202F17E42084310432861286818
:102E000040F080602860FDF79FFD044628680001BF
:102E100008D4FDF799FD001B0228F7D903221046BC
:102E200001B0F0BDB069296900220843286110464D
:102E300001B0F0BD2DE9F04782B000271E46904654
:102E40000D4681468DF80370FDF77EFD301A00EBCC
:102E50000806FDF779FD40F23801C2F20001096869
:102E600023225143090DD9F8004071430191A16813
:102E7000294239D0824618F1010039D0B5F5C06F2A
:102E800022D108E0019801380190D9F8000080684B
:102E900010F4C06F27D0207B8DF803009DF803004D
:102EA000FDF752FDA0EB0A00B04259D2019800286C
:102EB000E8D10026E9E700BF019801380190D9F870
:102EC0000000806828420ED0FDF73EFDA0EB0A000E
:102ED000B04245D201980028EED10026D9F8000072
:102EE00080682842F0D10027384602B0BDE8F0875C
:102EF0000027B5F5C06F25D1207B8DF803009DF824
:102F00000300A06810F4C06FEDD0207B8DF80300A3
:102F10009DF80300A06810F4C06FE4D0207B8DF80A
:102F200003009DF80300A06810F4C06FDBD0207B85
:102F30008DF803009DF80300A06810F4C06FDBD18A
:102F4000D2E700BFA0682842CDD0A0682842CAD0EE
:102F5000A0682842C7D0A0682842F3D1C4E700BFC8
:102F6000D9E900014268B1F5827F22F0E0024260B7
:102F70000BD1D9F80810B1F5004F02D0B1F5806F30
:102F800003D1016821F040010160D9F82810B1F5A2
:102F9000005F07D1016821F400510160016841F42C
:102FA00000510160012089F85D00002089F85C0073
:102FB0000327384602B0BDE8F0870000F0B581B0C5
:102FC00015460E460446FDF7BFFC281A8719FDF783
:102FD000BBFC40F23801C2F200010968C1F3CB31F9
:102FE0007943009121688A68120626D50546701C2F
:102FF00007D118E00098013800902068806800062A
:103000001BD5FDF7A1FC401BB84219D2009800283F
:10301000F0D10027206880680006F2D40DE000BFE0
:103020008868000609D58868000606D58868000605
:1030300044BF88685FEA0060F2D4002001B0F0BDB0
:10304000D4E900014268B1F5827F22F0E0024260DB
:103050000AD1A168B1F5004F02D0B1F5806F03D15C
:10306000016821F040010160A16AB1F5005F07D15C
:10307000016821F400510160016841F400510160D0
:10308000012084F85D00002084F85C00032001B07A
:10309000F0BD000070470000FDF75CBC4EF68850A4
:1030A000CEF20000016841F4700101607047000039
:1030B00040F26020C2F20000FFF740BA40F2AC20BC
:1030C000C2F20000FFF73ABA40F2F820C2F2000064
:1030D000FFF734BAB0B588B040F2A804C2F20004D9
:1030E00020780130C1B20429207015D340F20800C5
:1030F000C2F200000088002502900820069040F2ED
:103100005010621CC2F2000002A901ABCDE90355C8
:103110000595FDF78DF9257008B0B0BD036841F243
:10312000FF32C4F2000240F2B40C9342C2F2000C2F
:103130000EDCB3F1804F1BD041F20002C4F200025A
:10314000934222D10CF114030CF1100C1AE000BFD1
:1031500041F20042C4F2000293420FD042F6004214
:10316000C4F20102934218BF70470CF1040309E056
:103170000CF10C030CF1080C04E000BF0CF11C0373
:103180000CF1180CCCF8000019607047B0B540F293
:10319000501043F27541C2F20000C0F60001FDF785
:1031A000E1F840F26024C2F2000443F25121C0F67B
:1031B00000012046FFF7B2FF40F2AC25C2F2000545
:1031C00043F27141C0F600012846FFF7A7FF40F225
:1031D000D800C2F2000040F2B0114030C2F200014B
:1031E0004FF09042102300F03DFA40F24430C2F21A
:1031F0000000FFF79FFA40F20C00DFED120A9FED8E
:10320000121AC2F20000B6EE000AF7EE001A00F041
:1032100059FA2046FFF752F82846FFF74FF840F2D8
:103220001420C2F20000FFF71DF840F27810C2F23D
:10323000000040F2E73140F2E732BDE8B040FDF770
:10324000F3BC00BF0AD7A33C00000000FEE700006B
:10325000B0B52DED068B40F2D805C2F2000505F1A0
:103260004004204600F008FA2880204600F004F9C7
:103270006880204600F0B4F9204685ED040A00F08D
:1032800077F9204685ED030A85ED090A00F014F967
:10329000B0EE408A95ED050A95ED0A1A9FED6FAAEA
:1032A0009FED6D9A38EE400AB4EE4A1A20EE090AF4
:1032B000F1EE10FA85ED060A85ED078A1EDD9FED19
:1032C000682A00BF31EE021AB4EE4A1AF1EE10FA83
:1032D00014DD31EE021AB4EE4A1AF1EE10FA0DDDE9
:1032E00031EE021AB4EE4A1AF1EE10FA06DD31EEB2
:1032F000021AB4EE4A1AF1EE10FAE3DC9FED592AF5
:1033000085ED0B1AB4EE421AF1EE10FA20DA9FEDB9
:10331000563A00BF31EE031AB4EE421AF1EE10FA3B
:1033200014DA31EE031AB4EE421AF1EE10FA0DDAA5
:1033300031EE031AB4EE421AF1EE10FA06DA31EE6B
:10334000031AB4EE421AF1EE10FAE3DB85ED0B1A24
:1033500040F24000C2F20000016885ED0C1A01291C
:1033600002BF85ED080A0021016095ED0E0B9FED6F
:10337000381B51EC100B53EC112B00F022FE28B13E
:103380000020C3F6E0700021C5E90E1095ED040A97
:10339000B4EE4A0AF1EE10FA20DD9FED311A00BFBB
:1033A00030EE010AB4EE4A0AF1EE10FA14DD30EE06
:1033B000010AB4EE4A0AF1EE10FA0DDD30EE010A10
:1033C000B4EE4A0AF1EE10FA06DD30EE010AB4EE70
:1033D0004A0AF1EE10FAE3DC85ED040A9FED231AA8
:1033E00040F2A90320EE010ABDEEC00A10EE100A59
:1033F00028EE010ABDEEC00A10EE101A95ED0D0A76
:10340000C2F2000338EE400A20EE090A20EE010A5B
:10341000BDEEC00A10EE102A2881A980EA8085ED51
:103420000D8AA525A3F8010040F244301D70B52592
:10343000C2F20000DD71A3F80310A3F80520FFF726
:10344000A5F9BDEC068BBDE8B040FFF743BE00BF59
:10345000000000000000000000007A44DB0F49403B
:10346000DB0FC9C0DB0F49C0DB0FC9400000C842F9
:10347000704700007047000010B584B004464068F3
:10348000218900220392FDF759FA20684FF00A0CB7
:1034900003A902AA0423CDF800C0FEF727FC606848
:1034A00021890122FDF74AFABDF80A00C0BA04B02A
:1034B00010BD00000000000070B584B004464068F4
:1034C000218900250022ADF80650FDF737FA206863
:1034D00064260DF1060101AA02230096FEF706FC00
:1034E000606821890122FDF729FA9DF805009DF801
:1034F000041000F0F00040EA0126606821890022F3
:103500000395FDF71BFA20680A2503A902AA0423E4
:103510000095FEF7EBFB606821890122FDF70EFAAA
:10352000BDF80A004FF6FF7100BA8843304400F03E
:103530008FFB9FED0B0B53EC102B00F0F1F900F01B
:10354000B1F900F013FD9FED080B53EC102B00F0C8
:103550000FFC00F0A7F900EE100A04B070BD00BF28
:1035600000000000E0FFEF401F85EB51B81E19403E
:1035700010B582B00446406821890022ADF80620CB
:10358000FDF7DCF920684FF0640C0DF1060101AA8B
:103590000223CDF800C0FEF7A9FB60682189012253
:1035A000FDF7CCF99DF804009DF805109FED091A70
:1035B00041EA00204FF6F071084000EE100AB8EE24
:1035C000400A9FED052A20EE010A20EE020A02B011
:1035D00010BD00BF000080370000B44300000000B1
:1035E00010B582B00446406821890022ADF806205B
:1035F000FDF7A4F920684FF0640C0DF1060101AA53
:103600000223CDF800C0FEF771FB6068218901221A
:10361000FDF794F99DF804009DF805109FED101A30
:1036200041EA00204FF6F071084000EE100AB8EEB3
:10363000400A20EE010A10EE100A00F097FC9FED00
:10364000060B53EC102B00F093FB00F02BF900EE6F
:10365000100A02B010BD00BF1F85EB51B81E194003
:1036600000008037B3F5004F8FBF0120C0E9001282
:10367000038100207047000010B582B00446406806
:1036800021890022ADF80620FDF758F920684FF097
:10369000640C0DF1060101AA0223CDF800C0FEF76B
:1036A00025FB606821890122FDF748F99DF8040097
:1036B0009DF8051041EA00204FF6F071084002B075
:1036C00010BD0000C0ED050A80ED091A80ED000A6A
:1036D000C0ED011A7047000096B0FDF749F905A842
:1036E00004302421FCF7D8FD4FF40070FDF79AFB5D
:1036F00020B1EFF3108072B6FEE700BF1820602102
:10370000059001200D910221CDE90A00CDE90F10AD
:1037100011902820129007200024CDE9130105A85C
:103720000C941591FDF742FE20B1EFF3108072B6B4
:10373000FEE700BF0F2000900320CDE9010468469A
:103740000421CDE90344FDF711FD28B1EFF310800A
:1037500072B600BFFEE700BF41F2AB5540F2004435
:10376000CFF6FF75C4F60004FFF73AF9FFF718F932
:10377000FFF7C8F9FFF7E4F9FFF728FAFFF760FA57
:10378000FFF786FAFFF706FAFFF700FD40F214266E
:1037900040F2080740F23C094FF00008C2F2000670
:1037A000C2F20007C2F2000917E000BF48F2801021
:1037B0004FF6FD42C0F28110CFF6FC4201FB020041
:1037C0004CF2C0014FEAB000C0F2C00188420ED9ED
:1037D000204601210022FDF7B1F830684EF6612243
:1037E000416A9142E2DB4FF00008C0F8248038883B
:1037F000D028F2D34FF0010B07E000BFD046388845
:10380000CF3883450BF1010BE7DA30680121D0F89E
:1038100024A020460122FDF791F8A5EB08000B3803
:1038200000EB0A01A94219D2316800BFD1F824A0E7
:1038300000EB0A02AA4211D2D1F824A000EB0A023E
:10384000AA420BD2D1F824A000EB0A02AA4205D268
:10385000D1F824A000EB0A02AA42E7D320460121B6
:103860000022FDF76BF8D9F800000028C6D43168B3
:10387000D1F82480A8EB0A028242C0DCD1F824806F
:10388000A8EB0A028242BADCD1F82480A8EB0A0233
:103890008242B4DCD1F82480A8EB0A028242E7DD40
:1038A000ADE7000021F0004201F00043A2F16052B8
:1038B000B2F5801F28BFD2F17F6C0BD95FEA001CE4
:1038C00043EAC20242EB507018BF704728BF20F095
:1038D00001007047B2F5801FBCBF184670474FEA21
:1038E000410C1CF5001F02D2084600F0E7BB70B582
:1038F00000F0E8FA00000089FFF7F6BF4FF0004043
:10390000A0F580007047491058BFC1F140415B10DD
:1039100058BFC3F140438B42EFF300807047000073
:103920002DE9C04130B4DFF8A8C23CEA111418BF39
:103930003CEA131400F0F0801CEA111481EA03053C
:1039400044EAD57418BF1CEA131500F0CB80A4EB31
:10395000050404F17F7404F500344FF0004545EA96
:10396000C12145EAC32341EA505143EA52534FEA89
:10397000C0204FEAC222994208BF904200F0A080C6
:103980004FEA13650FF24816765D4FEA134506FBC2
:1039900005F7C7F1807706FB07F74FEAD737A7FB94
:1039A00003687642A7FB06CEC8F5803838BFA8F179
:1039B000010807FB08E6A6FB028C4FF0000EE6FBB1
:1039C00003CED8F100086FEA0C0C5CF1000C6FEA32
:1039D0000E0E4EF1004EA6FB0C584FF00007E6FB12
:1039E0000E87A1FB08C6A0FB07CE16EB0E064FF014
:1039F000000545F10005E1FB076515F1E04E7EBFCE
:103A0000A4F580345FEA46066D4116F1800745F162
:103A100000054FEA172747EA05674FEA15254FEAE1
:103A20000666A6F1DE46B6F1805F20D9384605EB82
:103A3000C47124F0010C01EB0C11BCF1FE6F02D833
:103A4000F0BCBDE8008124425CBF01F5801E9EEA07
:103A5000C47F02D4F0BCBDE80081244200F139806B
:103A6000A1F1C041F0BCBDE8004100F079BA4FEAD5
:103A7000D02040EA41504FEAD1214FEAD22242EA17
:103A800043524FEAD323A7FB028607FB036605FBDD
:103A900002661EEA0E0F58BFA6EB0056B6EB0056A4
:103AA0004FEA520E4EEAC37E18EB0E0E56EB530E43
:103AB000BCD518EB02085E417F1C55F10005B5E747
:103AC0004FF480154FF000074FF000064FF000084C
:103AD000ACE701F1C04101F000414FF00000F0BC43
:103AE000BDE800810CEA131511EA0C1F00D00CE0B0
:103AF00013EA0C1F00F025804FF0000081EA03015B
:103B000001F00041F0BCBDE80081F0BCBDE800411F
:103B100081EA030100F024BAF0BCBDE8004170B5B1
:103B200000F0D0F9097EFC3E00F007B84FF000002D
:103B300081EA030101F00041704781EA030100F0CE
:103B40000FBAF0BCBDE8004122494FF000007047B9
:103B5000FFFDFBF9F7F5F4F2F0EEEDEBE9E8E6E452
:103B6000E3E1E0DEDDDBDAD8D7D5D4D3D1D0CFCDD9
:103B7000CCCBCAC8C7C6C5C4C2C1C0BFBEBDBCBB12
:103B8000BAB9B8B7B6B5B4B3B2B1B0AFAEADACAB0D
:103B9000AAA9A8A8A7A6A5A4A3A3A2A1A09F9F9EE7
:103BA0009D9C9C9B9A999998979796959594939399
:103BB000929191908F8F8E8E8D8C8C8B8B8A898930
:103BC00088888787868585848483838282818180B3
:103BD0000000FF070000F87F51EA030C17D41CF522
:103BE000801F58BFBCF5801F00F10680994218BFA6
:103BF000704708BF9042704707D711F5801F58BF24
:103C000013F5801F19D499427047894270471CF5FB
:103C1000801F08D5BCF5801FF7D58B4218BF7047B1
:103C200008BF824270474FF4001C1CEB410F38BFA5
:103C30001CEB430F01D28B42704770B500F042F984
:103C4000922449004FF000514FF08053FFF75BBEC4
:103C500010F0004248BF4042B0FA80F310FA03F17E
:103C60000AD0C3F11D0303F5806302EB03524FEA50
:103C7000415002EBD12170474FF000007047000027
:103C800051EA030C17D41CF5801F58BFBCF5801FE8
:103C900000F10680994218BF704708BF90427047F4
:103CA00007D711F5801F58BF13F5801F19D499420B
:103CB0007047894270471CF5801F08D5BCF5801FEE
:103CC000F7D58B4218BF704708BF824270474FF448
:103CD000001C1CEB410F38BF1CEB430F01D28B4281
:103CE000704770B500F0EEF8922449004FF0805113
:103CF0004FF00053FFF707BE51EA030C17D41CF531
:103D0000801F58BFBCF5801F00F10680994218BF84
:103D1000704708BF9042704707D711F5801F58BF02
:103D200013F5801F19D499427047894270471CF5DA
:103D3000801F08D5BCF5801FF7D58B4218BF704790
:103D400008BF824270474FF4001C1CEB410F38BF84
:103D50001CEB430F01D28B42704770B500F0B2F8F4
:103D6000922449004FF000514FF08053FFF7CBBD34
:103D700070B5DFF848C11CEA111E1EBF1CEA1315FE
:103D80009EEA0C0F95EA0C0F00F06F8081EA0304A5
:103D90004EEAD47EAE4421EA4C1123EA4C1341F49E
:103DA000801143F48013AEF17F7EA1FB024CA0FB97
:103DB0000365361955EB0C05A1FB034C4CF10003D0
:103DC000A0FB021C16EB0C06654153F100030942EF
:103DD00018BF46F0010613F4007F0BD14FEA033100
:103DE0004FEA053041EA155140EA165034036FF0AE
:103DF00003020AE04FEAC3214FEAC52041EA5551C8
:103E000040EA5650F4026FF0020202EB2E4201EB40
:103E1000025585EACE710AD05FEA440C18BF24F03F
:103E2000004450F1000041F1000120EAD47040F25A
:103E3000FE7C624500D270BDA84214BF4FF08044A2
:103E40004FF04044002E08BF0024BEF1806FA8BF91
:103E5000A1F1C041BDE8704080F2828001F1C04113
:103E600001F000414FF0000070470CEA13159EEA84
:103E70000C0F18BF95EA0C0F06D081EA030E4FF025
:103E800000000EF0004170BD00F01CF88900013EFA
:103E900000F007B800F009B84FEA430C5FEA5C5C39
:103EA00008D081EA030100F05BB84FEA410C5FEAF9
:103EB0005C5CF6D102494FF0000070470000FF073C
:103EC0000000F87F0EF1020E2EF0030E5EF8046B78
:103ED000364205D4012A43EB030515F5001F12D81D
:103EE000012841EB010C1CF5001F0CD80ED14FEA44
:103EF000D17C0CEB4C0C0CF1020C15F5001F08BF2B
:103F00004CEBD37C04E04FF0080C01E04FEAD37C8B
:103F10000CEB4C0526FA05F606F00706B6F1040C84
:103F200006D20EEB860CBDE870404CF0010C6047E9
:103F3000DFE80CF0090B02024FF00041A1F500216F
:103F40004FF0000070BD19461046012851EB0104E6
:103F500018BFD4F5001484BF002001F0004170BDEB
:103F60000808A0F500114FEA3101704743004FEAFD
:103F7000D30C4FEA3C0C43401FBF40070CF160518B
:103F800013F0FE4F70471CF0006F03D10CF000419E
:103F9000002070470CF0004343EA507040EACC0028
:103FA00010B500F038F800BF000000924FEA0001A1
:103FB000FFF7D6BF4FF00041A1F500214FF0000000
:103FC000704710B5FFF708FE0CBF0120002010BDA0
:103FD00010B5FFF701FE14BF0120002010BD10B581
:103FE000FFF74EFE8CBF0120002010BD10B5FFF77B
:103FF00047FE2CBF0120002010BD10B5FFF77CFE4E
:1040000094BF0120002010BD10B5FFF775FE34BF2E
:104010000120002010BD0EF1020E2EF0030E5EF8FE
:10402000044B244204D44FEA4102B2F17F4F11D82D
:104030004FEA4003B3F17F4F0CD80ED14FEAD07C4A
:104040000CEB4C0C0CF1020CB2F17F4F08BF4CEBA7
:10405000D17C04E04FF0080C01E04FEAD17C0CEB7E
:104060004C0324FA03F404F00704B4F1040C06D260
:104070000EEB840CBDE810404CF0010C6047DFE80B
:104080000CF0070802024FF00040A0F5800010BDC0
:104090000846420018BFD2F1807288BF00F000408D
:1040A00010BDF1EE100A4FF6FF71C0F2C03120EAE8
:1040B000010040F04070E1EE100A7047FF2141EA34
:1040C000D050C00570470000000000000000010251
:1040D0000304060708090000A0860100400D030044
:1040E000801A060000350C0040420F0080841E003C
:1040F00000093D0000127A000024F40000366E0131
:104100000048E801006CDC022841000800000020A3
:1041100048000000F001000870410008480000203D
:104120001809000010020008010000001000000043
:10413000D10000000000803F0000000000000000EF
:104140000000803F0000803F0000803F0000000032
:10415000000000000000000000000000000000005F
:1041600000093D00FA00000001000000000000000E
:040000050800018D61
:00000001FF
